{
  "_format": "hh-sol-artifact-1",
  "contractName": "SwapSweep",
  "sourceName": "contracts/SwapSweep.sol",
  "abi": [
    {
      "inputs": [
        {
          "internalType": "contract IUniswapV3Pool",
          "name": "_uniPool",
          "type": "address"
        },
        {
          "internalType": "contract ISwapRouter",
          "name": "_router",
          "type": "address"
        },
        {
          "internalType": "contract ISilo",
          "name": "_silo0",
          "type": "address"
        },
        {
          "internalType": "contract ISilo",
          "name": "_silo1",
          "type": "address"
        },
        {
          "internalType": "int24",
          "name": "_minTick",
          "type": "int24"
        },
        {
          "internalType": "int24",
          "name": "_maxTick",
          "type": "int24"
        },
        {
          "internalType": "int24",
          "name": "_subDivisions",
          "type": "int24"
        }
      ],
      "stateMutability": "nonpayable",
      "type": "constructor"
    },
    {
      "anonymous": false,
      "inputs": [
        {
          "indexed": true,
          "internalType": "address",
          "name": "owner",
          "type": "address"
        },
        {
          "indexed": true,
          "internalType": "address",
          "name": "spender",
          "type": "address"
        },
        {
          "indexed": false,
          "internalType": "uint256",
          "name": "amount",
          "type": "uint256"
        }
      ],
      "name": "Approval",
      "type": "event"
    },
    {
      "anonymous": false,
      "inputs": [
        {
          "indexed": true,
          "internalType": "address",
          "name": "sender",
          "type": "address"
        },
        {
          "indexed": false,
          "internalType": "uint256",
          "name": "investorId",
          "type": "uint256"
        },
        {
          "indexed": false,
          "internalType": "uint256",
          "name": "shares",
          "type": "uint256"
        },
        {
          "indexed": false,
          "internalType": "uint256",
          "name": "amount0",
          "type": "uint256"
        },
        {
          "indexed": false,
          "internalType": "uint256",
          "name": "amount1",
          "type": "uint256"
        }
      ],
      "name": "Deposit",
      "type": "event"
    },
    {
      "anonymous": false,
      "inputs": [
        {
          "indexed": true,
          "internalType": "address",
          "name": "previousOwner",
          "type": "address"
        },
        {
          "indexed": true,
          "internalType": "address",
          "name": "newOwner",
          "type": "address"
        }
      ],
      "name": "OwnershipTransferred",
      "type": "event"
    },
    {
      "anonymous": false,
      "inputs": [
        {
          "indexed": false,
          "internalType": "uint256",
          "name": "ratio",
          "type": "uint256"
        },
        {
          "indexed": false,
          "internalType": "uint256",
          "name": "shares",
          "type": "uint256"
        },
        {
          "indexed": false,
          "internalType": "uint256",
          "name": "inventory0",
          "type": "uint256"
        },
        {
          "indexed": false,
          "internalType": "uint256",
          "name": "inventory1",
          "type": "uint256"
        }
      ],
      "name": "Rebalance",
      "type": "event"
    },
    {
      "anonymous": false,
      "inputs": [
        {
          "indexed": false,
          "internalType": "int24",
          "name": "lower",
          "type": "int24"
        },
        {
          "indexed": false,
          "internalType": "int24",
          "name": "upper",
          "type": "int24"
        }
      ],
      "name": "Reposition",
      "type": "event"
    },
    {
      "anonymous": false,
      "inputs": [
        {
          "indexed": true,
          "internalType": "address",
          "name": "from",
          "type": "address"
        },
        {
          "indexed": true,
          "internalType": "address",
          "name": "to",
          "type": "address"
        },
        {
          "indexed": false,
          "internalType": "uint256",
          "name": "amount",
          "type": "uint256"
        }
      ],
      "name": "Transfer",
      "type": "event"
    },
    {
      "anonymous": false,
      "inputs": [
        {
          "indexed": true,
          "internalType": "address",
          "name": "sender",
          "type": "address"
        },
        {
          "indexed": false,
          "internalType": "uint256",
          "name": "investorId",
          "type": "uint256"
        },
        {
          "indexed": false,
          "internalType": "uint256",
          "name": "shares",
          "type": "uint256"
        },
        {
          "indexed": false,
          "internalType": "uint256",
          "name": "amount0",
          "type": "uint256"
        },
        {
          "indexed": false,
          "internalType": "uint256",
          "name": "amount1",
          "type": "uint256"
        }
      ],
      "name": "Withdraw",
      "type": "event"
    },
    {
      "inputs": [],
      "name": "DENOMINATOR",
      "outputs": [
        {
          "internalType": "uint256",
          "name": "",
          "type": "uint256"
        }
      ],
      "stateMutability": "view",
      "type": "function"
    },
    {
      "inputs": [],
      "name": "DOMAIN_SEPARATOR",
      "outputs": [
        {
          "internalType": "bytes32",
          "name": "",
          "type": "bytes32"
        }
      ],
      "stateMutability": "view",
      "type": "function"
    },
    {
      "inputs": [],
      "name": "TOKEN0",
      "outputs": [
        {
          "internalType": "contract IERC20",
          "name": "",
          "type": "address"
        }
      ],
      "stateMutability": "view",
      "type": "function"
    },
    {
      "inputs": [],
      "name": "TOKEN1",
      "outputs": [
        {
          "internalType": "contract IERC20",
          "name": "",
          "type": "address"
        }
      ],
      "stateMutability": "view",
      "type": "function"
    },
    {
      "inputs": [],
      "name": "UNI_POOL",
      "outputs": [
        {
          "internalType": "contract IUniswapV3Pool",
          "name": "",
          "type": "address"
        }
      ],
      "stateMutability": "view",
      "type": "function"
    },
    {
      "inputs": [
        {
          "internalType": "address",
          "name": "",
          "type": "address"
        },
        {
          "internalType": "address",
          "name": "",
          "type": "address"
        }
      ],
      "name": "allowance",
      "outputs": [
        {
          "internalType": "uint256",
          "name": "",
          "type": "uint256"
        }
      ],
      "stateMutability": "view",
      "type": "function"
    },
    {
      "inputs": [
        {
          "internalType": "address",
          "name": "spender",
          "type": "address"
        },
        {
          "internalType": "uint256",
          "name": "amount",
          "type": "uint256"
        }
      ],
      "name": "approve",
      "outputs": [
        {
          "internalType": "bool",
          "name": "",
          "type": "bool"
        }
      ],
      "stateMutability": "nonpayable",
      "type": "function"
    },
    {
      "inputs": [
        {
          "internalType": "address",
          "name": "",
          "type": "address"
        }
      ],
      "name": "balanceOf",
      "outputs": [
        {
          "internalType": "uint256",
          "name": "",
          "type": "uint256"
        }
      ],
      "stateMutability": "view",
      "type": "function"
    },
    {
      "inputs": [],
      "name": "canRebalance",
      "outputs": [
        {
          "internalType": "bool",
          "name": "",
          "type": "bool"
        }
      ],
      "stateMutability": "view",
      "type": "function"
    },
    {
      "inputs": [],
      "name": "canReposition",
      "outputs": [
        {
          "internalType": "bool",
          "name": "",
          "type": "bool"
        }
      ],
      "stateMutability": "view",
      "type": "function"
    },
    {
      "inputs": [],
      "name": "decimals",
      "outputs": [
        {
          "internalType": "uint8",
          "name": "",
          "type": "uint8"
        }
      ],
      "stateMutability": "view",
      "type": "function"
    },
    {
      "inputs": [
        {
          "components": [
            {
              "internalType": "uint256",
              "name": "amount0Max",
              "type": "uint256"
            },
            {
              "internalType": "uint256",
              "name": "amount1Max",
              "type": "uint256"
            },
            {
              "internalType": "uint256",
              "name": "amount0Min",
              "type": "uint256"
            },
            {
              "internalType": "uint256",
              "name": "amount1Min",
              "type": "uint256"
            },
            {
              "internalType": "uint256",
              "name": "investorId",
              "type": "uint256"
            }
          ],
          "internalType": "struct SwapSweep.DepositParams",
          "name": "params",
          "type": "tuple"
        }
      ],
      "name": "deposit",
      "outputs": [
        {
          "internalType": "uint256",
          "name": "shares",
          "type": "uint256"
        },
        {
          "internalType": "uint256",
          "name": "amount0",
          "type": "uint256"
        },
        {
          "internalType": "uint256",
          "name": "amount1",
          "type": "uint256"
        }
      ],
      "stateMutability": "nonpayable",
      "type": "function"
    },
    {
      "inputs": [
        {
          "internalType": "contract ISilo",
          "name": "silo",
          "type": "address"
        },
        {
          "internalType": "uint256",
          "name": "amount",
          "type": "uint256"
        }
      ],
      "name": "depositSilo",
      "outputs": [],
      "stateMutability": "nonpayable",
      "type": "function"
    },
    {
      "inputs": [],
      "name": "getInventory",
      "outputs": [
        {
          "internalType": "uint256",
          "name": "inventory0",
          "type": "uint256"
        },
        {
          "internalType": "uint256",
          "name": "inventory1",
          "type": "uint256"
        }
      ],
      "stateMutability": "view",
      "type": "function"
    },
    {
      "inputs": [],
      "name": "getSharePriceInToken0",
      "outputs": [
        {
          "internalType": "uint256",
          "name": "sharePrice",
          "type": "uint256"
        }
      ],
      "stateMutability": "view",
      "type": "function"
    },
    {
      "inputs": [],
      "name": "maxDeadline",
      "outputs": [
        {
          "internalType": "uint256",
          "name": "",
          "type": "uint256"
        }
      ],
      "stateMutability": "view",
      "type": "function"
    },
    {
      "inputs": [],
      "name": "maxSlippageD",
      "outputs": [
        {
          "internalType": "uint256",
          "name": "",
          "type": "uint256"
        }
      ],
      "stateMutability": "view",
      "type": "function"
    },
    {
      "inputs": [],
      "name": "name",
      "outputs": [
        {
          "internalType": "string",
          "name": "",
          "type": "string"
        }
      ],
      "stateMutability": "view",
      "type": "function"
    },
    {
      "inputs": [
        {
          "internalType": "address",
          "name": "",
          "type": "address"
        }
      ],
      "name": "nonces",
      "outputs": [
        {
          "internalType": "uint256",
          "name": "",
          "type": "uint256"
        }
      ],
      "stateMutability": "view",
      "type": "function"
    },
    {
      "inputs": [],
      "name": "owner",
      "outputs": [
        {
          "internalType": "address",
          "name": "",
          "type": "address"
        }
      ],
      "stateMutability": "view",
      "type": "function"
    },
    {
      "inputs": [],
      "name": "packedSlot",
      "outputs": [
        {
          "internalType": "int24",
          "name": "primaryLower",
          "type": "int24"
        },
        {
          "internalType": "int24",
          "name": "primaryUpper",
          "type": "int24"
        }
      ],
      "stateMutability": "view",
      "type": "function"
    },
    {
      "inputs": [
        {
          "internalType": "address",
          "name": "owner",
          "type": "address"
        },
        {
          "internalType": "address",
          "name": "spender",
          "type": "address"
        },
        {
          "internalType": "uint256",
          "name": "value",
          "type": "uint256"
        },
        {
          "internalType": "uint256",
          "name": "deadline",
          "type": "uint256"
        },
        {
          "internalType": "uint8",
          "name": "v",
          "type": "uint8"
        },
        {
          "internalType": "bytes32",
          "name": "r",
          "type": "bytes32"
        },
        {
          "internalType": "bytes32",
          "name": "s",
          "type": "bytes32"
        }
      ],
      "name": "permit",
      "outputs": [],
      "stateMutability": "nonpayable",
      "type": "function"
    },
    {
      "inputs": [],
      "name": "readTicks",
      "outputs": [
        {
          "internalType": "int24",
          "name": "",
          "type": "int24"
        },
        {
          "internalType": "int24",
          "name": "",
          "type": "int24"
        },
        {
          "internalType": "int24",
          "name": "",
          "type": "int24"
        }
      ],
      "stateMutability": "view",
      "type": "function"
    },
    {
      "inputs": [
        {
          "internalType": "uint256",
          "name": "_deadline",
          "type": "uint256"
        }
      ],
      "name": "rebalance",
      "outputs": [],
      "stateMutability": "nonpayable",
      "type": "function"
    },
    {
      "inputs": [],
      "name": "renounceOwnership",
      "outputs": [],
      "stateMutability": "nonpayable",
      "type": "function"
    },
    {
      "inputs": [],
      "name": "reposition",
      "outputs": [],
      "stateMutability": "nonpayable",
      "type": "function"
    },
    {
      "inputs": [],
      "name": "router",
      "outputs": [
        {
          "internalType": "contract ISwapRouter",
          "name": "",
          "type": "address"
        }
      ],
      "stateMutability": "view",
      "type": "function"
    },
    {
      "inputs": [],
      "name": "selfDestruct",
      "outputs": [],
      "stateMutability": "nonpayable",
      "type": "function"
    },
    {
      "inputs": [
        {
          "internalType": "uint256",
          "name": "_deadline",
          "type": "uint256"
        }
      ],
      "name": "setMaxDeadline",
      "outputs": [],
      "stateMutability": "nonpayable",
      "type": "function"
    },
    {
      "inputs": [
        {
          "internalType": "uint256",
          "name": "_maxSlippageD",
          "type": "uint256"
        }
      ],
      "name": "setMaxSlippageD",
      "outputs": [],
      "stateMutability": "nonpayable",
      "type": "function"
    },
    {
      "inputs": [
        {
          "internalType": "uint256",
          "name": "",
          "type": "uint256"
        }
      ],
      "name": "shares",
      "outputs": [
        {
          "internalType": "uint256",
          "name": "",
          "type": "uint256"
        }
      ],
      "stateMutability": "view",
      "type": "function"
    },
    {
      "inputs": [],
      "name": "silo0",
      "outputs": [
        {
          "internalType": "contract ISilo",
          "name": "",
          "type": "address"
        }
      ],
      "stateMutability": "view",
      "type": "function"
    },
    {
      "inputs": [],
      "name": "silo1",
      "outputs": [
        {
          "internalType": "contract ISilo",
          "name": "",
          "type": "address"
        }
      ],
      "stateMutability": "view",
      "type": "function"
    },
    {
      "inputs": [],
      "name": "symbol",
      "outputs": [
        {
          "internalType": "string",
          "name": "",
          "type": "string"
        }
      ],
      "stateMutability": "view",
      "type": "function"
    },
    {
      "inputs": [],
      "name": "targetUniRatioD",
      "outputs": [
        {
          "internalType": "uint256",
          "name": "",
          "type": "uint256"
        }
      ],
      "stateMutability": "view",
      "type": "function"
    },
    {
      "inputs": [],
      "name": "tickSubRangeLength",
      "outputs": [
        {
          "internalType": "int24",
          "name": "",
          "type": "int24"
        }
      ],
      "stateMutability": "view",
      "type": "function"
    },
    {
      "inputs": [],
      "name": "totalSupply",
      "outputs": [
        {
          "internalType": "uint256",
          "name": "",
          "type": "uint256"
        }
      ],
      "stateMutability": "view",
      "type": "function"
    },
    {
      "inputs": [
        {
          "internalType": "address",
          "name": "to",
          "type": "address"
        },
        {
          "internalType": "uint256",
          "name": "amount",
          "type": "uint256"
        }
      ],
      "name": "transfer",
      "outputs": [
        {
          "internalType": "bool",
          "name": "",
          "type": "bool"
        }
      ],
      "stateMutability": "nonpayable",
      "type": "function"
    },
    {
      "inputs": [
        {
          "internalType": "address",
          "name": "from",
          "type": "address"
        },
        {
          "internalType": "address",
          "name": "to",
          "type": "address"
        },
        {
          "internalType": "uint256",
          "name": "amount",
          "type": "uint256"
        }
      ],
      "name": "transferFrom",
      "outputs": [
        {
          "internalType": "bool",
          "name": "",
          "type": "bool"
        }
      ],
      "stateMutability": "nonpayable",
      "type": "function"
    },
    {
      "inputs": [
        {
          "internalType": "address",
          "name": "newOwner",
          "type": "address"
        }
      ],
      "name": "transferOwnership",
      "outputs": [],
      "stateMutability": "nonpayable",
      "type": "function"
    },
    {
      "inputs": [
        {
          "internalType": "uint256",
          "name": "_amount0",
          "type": "uint256"
        },
        {
          "internalType": "uint256",
          "name": "_amount1",
          "type": "uint256"
        },
        {
          "internalType": "bytes",
          "name": "",
          "type": "bytes"
        }
      ],
      "name": "uniswapV3MintCallback",
      "outputs": [],
      "stateMutability": "nonpayable",
      "type": "function"
    },
    {
      "inputs": [
        {
          "internalType": "uint256",
          "name": "shares",
          "type": "uint256"
        },
        {
          "internalType": "uint256",
          "name": "amount0Min",
          "type": "uint256"
        },
        {
          "internalType": "uint256",
          "name": "amount1Min",
          "type": "uint256"
        },
        {
          "internalType": "uint256",
          "name": "investorId",
          "type": "uint256"
        }
      ],
      "name": "withdraw",
      "outputs": [
        {
          "internalType": "uint256",
          "name": "amount0",
          "type": "uint256"
        },
        {
          "internalType": "uint256",
          "name": "amount1",
          "type": "uint256"
        }
      ],
      "stateMutability": "nonpayable",
      "type": "function"
    },
    {
      "stateMutability": "payable",
      "type": "receive"
    }
  ],
  "bytecode": "0x6101e0604052624c4b40600855603c6009553480156200001e57600080fd5b5060405162006490380380620064908339810160408190526200004191620008d4565b86876001600160a01b0316630dfe16816040518163ffffffff1660e01b8152600401602060405180830381865afa15801562000081573d6000803e3d6000fd5b505050506040513d601f19601f82011682018060405250810190620000a7919062000974565b6001600160a01b03166395d89b416040518163ffffffff1660e01b8152600401600060405180830381865afa158015620000e5573d6000803e3d6000fd5b505050506040513d6000823e601f3d908101601f191682016040526200010f9190810190620009dd565b886001600160a01b031663d21220a76040518163ffffffff1660e01b8152600401602060405180830381865afa1580156200014e573d6000803e3d6000fd5b505050506040513d601f19601f8201168201806040525081019062000174919062000974565b6001600160a01b03166395d89b416040518163ffffffff1660e01b8152600401600060405180830381865afa158015620001b2573d6000803e3d6000fd5b505050506040513d6000823e601f3d908101601f19168201604052620001dc9190810190620009dd565b604051602001620001ef92919062000a95565b604051602081830303815290604052806040518060400160405280600a8152602001690535741505f53574545560b41b815250601282600090805190602001906200023c929190620007fd565b50815162000252906001906020850190620007fd565b5060ff81166080524660a0526200026862000693565b60c052505050506001600160a01b03811660e081905260408051630dfe168160e01b81529051630dfe1681916004808201926020929091908290030181865afa158015620002ba573d6000803e3d6000fd5b505050506040513d601f19601f82011682018060405250810190620002e0919062000974565b6001600160a01b0316610100816001600160a01b031681525050806001600160a01b031663d21220a76040518163ffffffff1660e01b8152600401602060405180830381865afa15801562000339573d6000803e3d6000fd5b505050506040513d601f19601f820116820180604052508101906200035f919062000974565b6001600160a01b0316610120816001600160a01b031681525050806001600160a01b031663d0c93a7c6040518163ffffffff1660e01b8152600401602060405180830381865afa158015620003b8573d6000803e3d6000fd5b505050506040513d601f19601f82011682018060405250810190620003de919062000aea565b60020b6101405250620003f1336200072f565b6000620003ff848462000b1e565b9050816101405162000412919062000b6c565b6200041e908262000c1b565b60020b15620004735760405162461bcd60e51b815260206004820152601e60248201527f5f7469636b52616e67652025205f7375624469766973696f6e7320213d300000604482015260640160405180910390fd5b6200047e326200072f565b6200048a828262000c40565b600a805462ffffff60a01b1916600160a01b62ffffff9390931683021790819055620004c891620004c0910460020b8562000b1e565b858562000781565b600b55600284810b6101605283900b610180526001600160a01b038681166101a0528581166101c052600a80546001600160a01b03191689831617905560e0805160408051633850c7bd60e01b815290516000949290921692633850c7bd926004808401938290030181865afa15801562000547573d6000803e3d6000fd5b505050506040513d601f19601f820116820180604052508101906200056d919062000c93565b505050505091505060006101805160020b8260020b12156200063957506101805160005b8460020b8160020b1215620005e357600a54620005b990600160a01b900460020b8362000b1e565b91508260020b8260020b1215620005d057620005e3565b620005db8162000d3a565b905062000591565b50600c805462ffffff191662ffffff8316179055600a546200061090600160a01b900460020b8262000d5f565b600c805462ffffff9290921663010000000265ffffff0000001990921691909117905562000683565b600a54610180516200065691600160a01b900460020b9062000b1e565b600c80546101805162ffffff90811663010000000265ffffffffffff199092169316929092179190911790555b5050505050505050505062000ec6565b60007f8b73c3c69bb8fe3d512ecc4cf759cc79239f7b179b0ffacaa9a75d522b39400f6000604051620006c7919062000de9565b6040805191829003822060208301939093528101919091527fc89efdaa54c0f20c7adf612882df0950f5a951637e0307cdcb4c672f298b8bc660608201524660808201523060a082015260c00160405160208183030381529060405280519060200120905090565b600780546001600160a01b038381166001600160a01b0319831681179093556040519116919082907f8be0079c531659141344cd1fd0a4f28419497f9722a3daafe3b4186f6b6457e090600090a35050565b60008260020b8460020b136200079a57506000620007f6565b8160020b8460020b12620007b45750633b9aca00620007f6565b620007c0838362000b1e565b62ffffff16633b9aca00620007d6868562000b1e565b62ffffff16620007e7919062000e8d565b620007f3919062000eaf565b90505b9392505050565b8280546200080b9062000dac565b90600052602060002090601f0160209004810192826200082f57600085556200087a565b82601f106200084a57805160ff19168380011785556200087a565b828001600101855582156200087a579182015b828111156200087a5782518255916020019190600101906200085d565b50620008889291506200088c565b5090565b5b808211156200088857600081556001016200088d565b6001600160a01b0381168114620008b957600080fd5b50565b8051600281900b8114620008cf57600080fd5b919050565b600080600080600080600060e0888a031215620008f057600080fd5b8751620008fd81620008a3565b60208901519097506200091081620008a3565b60408901519096506200092381620008a3565b60608901519095506200093681620008a3565b93506200094660808901620008bc565b92506200095660a08901620008bc565b91506200096660c08901620008bc565b905092959891949750929550565b6000602082840312156200098757600080fd5b8151620007f681620008a3565b634e487b7160e01b600052604160045260246000fd5b60005b83811015620009c7578181015183820152602001620009ad565b83811115620009d7576000848401525b50505050565b600060208284031215620009f057600080fd5b81516001600160401b038082111562000a0857600080fd5b818401915084601f83011262000a1d57600080fd5b81518181111562000a325762000a3262000994565b604051601f8201601f19908116603f0116810190838211818310171562000a5d5762000a5d62000994565b8160405282815287602084870101111562000a7757600080fd5b62000a8a836020830160208801620009aa565b979650505050505050565b6805377617053776565760bc1b81526000835162000abb816009850160208801620009aa565b602f60f81b600991840191820152835162000ade81600a840160208801620009aa565b01600a01949350505050565b60006020828403121562000afd57600080fd5b620007f682620008bc565b634e487b7160e01b600052601160045260246000fd5b60008160020b8360020b6000811281627fffff190183128115161562000b485762000b4862000b08565b81627fffff01831381161562000b625762000b6262000b08565b5090039392505050565b60008160020b8360020b627fffff60008213600084138383048511828216161562000b9b5762000b9b62000b08565b627fffff19600085128281168783058712161562000bbd5762000bbd62000b08565b6000871292508582058712848416161562000bdc5762000bdc62000b08565b8585058712818416161562000bf55762000bf562000b08565b5050509290910295945050505050565b634e487b7160e01b600052601260045260246000fd5b60008260020b8062000c315762000c3162000c05565b808360020b0791505092915050565b60008160020b8360020b8062000c5a5762000c5a62000c05565b627fffff1982146000198214161562000c775762000c7762000b08565b90059392505050565b805161ffff81168114620008cf57600080fd5b600080600080600080600060e0888a03121562000caf57600080fd5b875162000cbc81620008a3565b965062000ccc60208901620008bc565b955062000cdc6040890162000c80565b945062000cec6060890162000c80565b935062000cfc6080890162000c80565b925060a088015160ff8116811462000d1357600080fd5b60c0890151909250801515811462000d2a57600080fd5b8091505092959891949750929550565b60008160020b627fffff81141562000d565762000d5662000b08565b60010192915050565b60008160020b8360020b6000821282627fffff0382138115161562000d885762000d8862000b08565b82627fffff1903821281161562000da35762000da362000b08565b50019392505050565b600181811c9082168062000dc157607f821691505b6020821081141562000de357634e487b7160e01b600052602260045260246000fd5b50919050565b600080835481600182811c91508083168062000e0657607f831692505b602080841082141562000e2757634e487b7160e01b86526022600452602486fd5b81801562000e3e576001811462000e505762000e7f565b60ff1986168952848901965062000e7f565b60008a81526020902060005b8681101562000e775781548b82015290850190830162000e5c565b505084890196505b509498975050505050505050565b600081600019048311821515161562000eaa5762000eaa62000b08565b500290565b60008262000ec15762000ec162000c05565b500490565b60805160a05160c05160e05161010051610120516101405161016051610180516101a0516101c05161537f620011116000396000818161085f01528181610c8701528181610f72015281816112430152818161154701528181611618015281816119b901528181611ad101528181611b6001528181611f7c01528181611ff901528181612b8301528181612dbf01528181612f20015281816131f401526140e001526000818161054b01528181610c5501528181610f39015281816112110152818161148b015281816115860152818161198701528181611a0701528181611a9601528181611ec801528181611f3d01528181612b5901528181612dee01528181612ef10152818161317101528181613adc0152613b620152600081816111610152818161233101528181612c19015261333e0152600081816111940152818161231001528181612bf8015261331d0152600050506000818161051701528181610eaa015281816114ca01528181611ce3015281816121290152818161219e0152818161249501528181612d610152612ec201526000818161047401528181610e750152818161140e01528181611caf0152818161206a015281816120df0152818161245b0152818161281201528181612d900152612e930152600081816106a501528181610cb9015281816110300152818161175401528181611817015281816121f50152818161241e015281816127270152818161286501528181612a93015281816130120152613eea01526000611721015260006116ec01526000610404015261537f6000f3fe6080604052600436106102d55760003560e01c80638da5cb5b11610179578063da3848db116100d6578063df3e6b971161008a578063f499301811610064578063f4993018146108a1578063f887ea40146108c1578063fb029300146108e157600080fd5b8063df3e6b9714610814578063e035814d1461084d578063f2fde38b1461088157600080fd5b8063dd62ed3e116100bb578063dd62ed3e146107a6578063de4e4201146107de578063df2cfda4146107f457600080fd5b8063da3848db14610751578063db27be6c1461079157600080fd5b80639cb8a26a1161012d578063a9059cbb11610112578063a9059cbb146106f1578063d348799714610711578063d505accf1461073157600080fd5b80639cb8a26a146106c7578063a06880c0146106dc57600080fd5b806395d89b411161015e57806395d89b41146106685780639748b6a71461067d5780639b1475581461069357600080fd5b80638da5cb5b14610632578063918f86741461065057600080fd5b8063443ec74d11610232578063674fb1b4116101e6578063715018a6116101c0578063715018a6146105da5780637ecebe00146105ef5780638a52c1171461061c57600080fd5b8063674fb1b41461056d57806367963a721461058d57806370a08231146105ad57600080fd5b80635d7f850c116102175780635d7f850c146104db5780635ee04d781461050557806362d7d45e1461053957600080fd5b8063443ec74d1461046257806357a858fc146104ae57600080fd5b80632f0f4a2511610289578063313ce5671161026e578063313ce567146103f25780633644e515146104385780633911b4a61461044d57600080fd5b80632f0f4a25146103a25780633048585e146103dd57600080fd5b80630d499509116102ba5780630d4995091461033c57806318160ddd1461035e57806323b872dd1461038257600080fd5b806306fdde03146102e1578063095ea7b31461030c57600080fd5b366102dc57005b600080fd5b3480156102ed57600080fd5b506102f6610915565b6040516103039190614c4e565b60405180910390f35b34801561031857600080fd5b5061032c610327366004614c96565b6109a3565b6040519015158152602001610303565b34801561034857600080fd5b5061035c610357366004614cc2565b610a0f565b005b34801561036a57600080fd5b5061037460025481565b604051908152602001610303565b34801561038e57600080fd5b5061032c61039d366004614cdb565b610a73565b3480156103ae57600080fd5b506103c26103bd366004614d1c565b610b67565b60408051938452602084019290925290820152606001610303565b3480156103e957600080fd5b5061035c611004565b3480156103fe57600080fd5b506104267f000000000000000000000000000000000000000000000000000000000000000081565b60405160ff9091168152602001610303565b34801561044457600080fd5b506103746116e8565b34801561045957600080fd5b5061032c611743565b34801561046e57600080fd5b506104967f000000000000000000000000000000000000000000000000000000000000000081565b6040516001600160a01b039091168152602001610303565b3480156104ba57600080fd5b506103746104c9366004614cc2565b60066020526000908152604090205481565b3480156104e757600080fd5b506104f0611804565b60408051928352602083019190915201610303565b34801561051157600080fd5b506104967f000000000000000000000000000000000000000000000000000000000000000081565b34801561054557600080fd5b506104967f000000000000000000000000000000000000000000000000000000000000000081565b34801561057957600080fd5b506104f0610588366004614d9a565b6118b4565b34801561059957600080fd5b5061035c6105a8366004614cc2565b611d6e565b3480156105b957600080fd5b506103746105c8366004614dcc565b60036020526000908152604090205481565b3480156105e657600080fd5b5061035c611dcd565b3480156105fb57600080fd5b5061037461060a366004614dcc565b60056020526000908152604090205481565b34801561062857600080fd5b5061037460085481565b34801561063e57600080fd5b506007546001600160a01b0316610496565b34801561065c57600080fd5b50610374633b9aca0081565b34801561067457600080fd5b506102f6611e33565b34801561068957600080fd5b50610374600b5481565b34801561069f57600080fd5b506104967f000000000000000000000000000000000000000000000000000000000000000081565b3480156106d357600080fd5b5061035c611e40565b3480156106e857600080fd5b5061032c6121c8565b3480156106fd57600080fd5b5061032c61070c366004614c96565b61239b565b34801561071d57600080fd5b5061035c61072c366004614de9565b612413565b34801561073d57600080fd5b5061035c61074c366004614e78565b6124c2565b34801561075d57600080fd5b50600c5461077790600281810b9163010000009004900b82565b60408051600293840b81529190920b602082015201610303565b34801561079d57600080fd5b50610374612715565b3480156107b257600080fd5b506103746107c1366004614ee9565b600460209081526000928352604080842090915290825290205481565b3480156107ea57600080fd5b5061037460095481565b34801561080057600080fd5b5061035c61080f366004614c96565b612805565b34801561082057600080fd5b50610829612851565b60408051600294850b815292840b6020840152920b91810191909152606001610303565b34801561085957600080fd5b506104967f000000000000000000000000000000000000000000000000000000000000000081565b34801561088d57600080fd5b5061035c61089c366004614dcc565b612903565b3480156108ad57600080fd5b5061035c6108bc366004614cc2565b6129e5565b3480156108cd57600080fd5b50600a54610496906001600160a01b031681565b3480156108ed57600080fd5b50600a5461090290600160a01b900460020b81565b60405160029190910b8152602001610303565b6000805461092290614f22565b80601f016020809104026020016040519081016040528092919081815260200182805461094e90614f22565b801561099b5780601f106109705761010080835404028352916020019161099b565b820191906000526020600020905b81548152906001019060200180831161097e57829003601f168201915b505050505081565b3360008181526004602090815260408083206001600160a01b038716808552925280832085905551919290917f8c5be1e5ebec7d5bd14f71427d1e84f3dd0314c0f7b2291e5b200ac8c7c3b925906109fe9086815260200190565b60405180910390a350600192915050565b6007546001600160a01b03163314610a6e5760405162461bcd60e51b815260206004820181905260248201527f4f776e61626c653a2063616c6c6572206973206e6f7420746865206f776e657260448201526064015b60405180910390fd5b600955565b6001600160a01b03831660009081526004602090815260408083203384529091528120546000198114610acf57610aaa8382614f73565b6001600160a01b03861660009081526004602090815260408083203384529091529020555b6001600160a01b03851660009081526003602052604081208054859290610af7908490614f73565b90915550506001600160a01b03808516600081815260036020526040908190208054870190555190918716907fddf252ad1be2c89b69c2b068fc378daa952ba7f163c4a11628f55a4df523b3ef90610b529087815260200190565b60405180910390a360019150505b9392505050565b60008080336001600160a01b0316610b876007546001600160a01b031690565b6001600160a01b031614610bdd5760405162461bcd60e51b815260206004820181905260248201527f4f776e61626c653a2063616c6c6572206973206e6f7420746865206f776e65726044820152606401610a65565b8351151580610bef5750602084015115155b610c3b5760405162461bcd60e51b815260206004820152601460248201527f5377617053776565703a2030206465706f7369740000000000000000000000006044820152606401610a65565b6000610c45612fbd565b9050610c5081613049565b610c827f00000000000000000000000000000000000000000000000000000000000000006001600160a01b031661310c565b610cb47f00000000000000000000000000000000000000000000000000000000000000006001600160a01b031661310c565b6000807f00000000000000000000000000000000000000000000000000000000000000006001600160a01b0316633850c7bd6040518163ffffffff1660e01b815260040160e060405180830381865afa158015610d15573d6000803e3d6000fd5b505050506040513d601f19601f82011682018060405250810190610d399190614fac565b505050505091509150600080610d4f8585613149565b91509150610d6c60025483838c600001518d6020015189896132ea565b9199509750955087610dc05760405162461bcd60e51b815260206004820152601360248201527f5377617053776565703a203020736861726573000000000000000000000000006044820152606401610a65565b8860400151871015610e145760405162461bcd60e51b815260206004820152601a60248201527f5377617053776565703a20616d6f756e743020746f6f206c6f770000000000006044820152606401610a65565b8860600151861015610e685760405162461bcd60e51b815260206004820152601a60248201527f5377617053776565703a20616d6f756e743120746f6f206c6f770000000000006044820152606401610a65565b610e9d6001600160a01b037f00000000000000000000000000000000000000000000000000000000000000001633308a6134c3565b610ed26001600160a01b037f0000000000000000000000000000000000000000000000000000000000000000163330896134c3565b600080610eea8989878a602001518b60400151613546565b9092509050610f05610efe888885856135cf565b88906135ff565b90925090506000610f16838b614f73565b90506000610f24838b614f73565b90508115610f5f57610f5f6001600160a01b037f000000000000000000000000000000000000000000000000000000000000000016836136c2565b8015610f9857610f986001600160a01b037f000000000000000000000000000000000000000000000000000000000000000016826136c2565b610fa7338e608001518e61373c565b6080808e015160408051918252602082018f905281018d9052606081018c905233917f7162984403f6c73c8639375d45a9187dfd04602231bd8e587c415718b5f7e5f9910160405180910390a25050505050505050509193909250565b600061100e612fbd565b60408051606081018252600080825260208201819052918101919091529091507f00000000000000000000000000000000000000000000000000000000000000006001600160a01b0316633850c7bd6040518163ffffffff1660e01b815260040160e060405180830381865afa15801561108c573d6000803e3d6000fd5b505050506040513d601f19601f820116820180604052508101906110b09190614fac565b5050505060029190910b6040840152506001600160a01b03168082526110db9080600160601b6137b9565b6001600160e01b0316602082015260408083015190820151600291820b910b13806111135750816020015160020b816040015160020b125b61115f5760405162461bcd60e51b815260206004820152601a60248201527f7469636b20696e2063757272656e7420756e6920626f756e64730000000000006044820152606401610a65565b7f000000000000000000000000000000000000000000000000000000000000000060020b816040015160020b12806111c057507f000000000000000000000000000000000000000000000000000000000000000060020b816040015160020b135b61120c5760405162461bcd60e51b815260206004820152601f60248201527f7469636b206f7574206f66204d494e204d4158207469636b20626f756e6473006044820152606401610a65565b61123e7f00000000000000000000000000000000000000000000000000000000000000006001600160a01b031661310c565b6112707f00000000000000000000000000000000000000000000000000000000000000006001600160a01b031661310c565b600080611281848460000151613149565b915091506112b06040518060800160405280600081526020016000815260200160008152602001600081525090565b60006112bb86613866565b5050505090506112d4818761394e90919063ffffffff16565b606086015260408086019190915260208501919091529083528681015190860151600291820b910b131561132a57604086018051600281810b60208a0152600a54600160a01b9004810b909101900b905261134e565b602086018051600281810b60408a0152600a54600160a01b9004810b909103900b90525b60008061136a868689604001518b602001518c60400151613546565b915091506000846040015185600001516113849190615040565b905060008560600151866020015161139c9190615040565b9050838210156113ba57600097506113b5828503613aba565b820193505b828110156113d657600096506113d1818403613aba565b810192505b88516113f0906113e9908c9087876135cf565b8b906135ff565b6040516370a0823160e01b815230600482015291955093506114b1907f00000000000000000000000000000000000000000000000000000000000000006001600160a01b0316906370a0823190602401602060405180830381865afa15801561145d573d6000803e3d6000fd5b505050506040513d601f19601f820116820180604052508101906114819190615058565b6001600160a01b037f000000000000000000000000000000000000000000000000000000000000000016906136c2565b6040516370a0823160e01b815230600482015261156d907f00000000000000000000000000000000000000000000000000000000000000006001600160a01b0316906370a0823190602401602060405180830381865afa158015611519573d6000803e3d6000fd5b505050506040513d601f19601f8201168201806040525081019061153d9190615058565b6001600160a01b037f000000000000000000000000000000000000000000000000000000000000000016906136c2565b6040516370a0823160e01b81523060048201526115ff907f00000000000000000000000000000000000000000000000000000000000000006001600160a01b0316906370a08231906024015b602060405180830381865afa1580156115d6573d6000803e3d6000fd5b505050506040513d601f19601f820116820180604052508101906115fa9190615058565b613b8f565b6040516370a0823160e01b815230600482015261164f907f00000000000000000000000000000000000000000000000000000000000000006001600160a01b0316906370a08231906024016115b9565b60408051808201825260208c81018051600281810b85528f8601805180830b96860196909652600c805462ffffff94851665ffffffffffff1990911617630100000094909716939093029590951790915590519251845193820b8452900b908201527fe30549c975cfc97bbf0e6839e6b3f8669a10f43b310dbd371cb0a9186cc391a1910160405180910390a150505050505050505050565b60007f0000000000000000000000000000000000000000000000000000000000000000461461171e57611719613bd4565b905090565b507f000000000000000000000000000000000000000000000000000000000000000090565b60008061174e612fbd565b905060007f00000000000000000000000000000000000000000000000000000000000000006001600160a01b0316633850c7bd6040518163ffffffff1660e01b815260040160e060405180830381865afa1580156117b0573d6000803e3d6000fd5b505050506040513d601f19601f820116820180604052508101906117d49190614fac565b5050505050915050816040015160020b8160020b13806117fd5750816020015160020b8160020b125b9250505090565b6000806000611811612fbd565b905060007f00000000000000000000000000000000000000000000000000000000000000006001600160a01b0316633850c7bd6040518163ffffffff1660e01b815260040160e060405180830381865afa158015611873573d6000803e3d6000fd5b505050506040513d601f19601f820116820180604052508101906118979190614fac565b50505050505090506118a98282613149565b909590945092505050565b600080336001600160a01b03166118d36007546001600160a01b031690565b6001600160a01b0316146119295760405162461bcd60e51b815260206004820181905260248201527f4f776e61626c653a2063616c6c6572206973206e6f7420746865206f776e65726044820152606401610a65565b856119765760405162461bcd60e51b815260206004820152601360248201527f5377617053776565703a203020736861726573000000000000000000000000006044820152606401610a65565b6000611980612fbd565b90506119b47f00000000000000000000000000000000000000000000000000000000000000006001600160a01b031661310c565b6119e67f00000000000000000000000000000000000000000000000000000000000000006001600160a01b031661310c565b6002546040516370a0823160e01b81523060048201526000908190819081907f00000000000000000000000000000000000000000000000000000000000000006001600160a01b0316906370a0823190602401602060405180830381865afa158015611a56573d6000803e3d6000fd5b505050506040513d601f19601f82011682018060405250810190611a7a9190615058565b9250611a87838d876137b9565b9750611abc6001600160a01b037f00000000000000000000000000000000000000000000000000000000000000001689613c6e565b6040516370a0823160e01b81523060048201527f00000000000000000000000000000000000000000000000000000000000000006001600160a01b0316906370a0823190602401602060405180830381865afa158015611b20573d6000803e3d6000fd5b505050506040513d601f19601f82011682018060405250810190611b449190615058565b9250611b51838d876137b9565b9650611b866001600160a01b037f00000000000000000000000000000000000000000000000000000000000000001688613c6e565b6000611b9187613866565b505050509050611bb5611bae826001600160801b03168f896137b9565b889061394e565b92975090955093509150611bca838e886137b9565b611bd49086615040565b611bde908a615040565b9850611beb828e886137b9565b611bf59085615040565b611bff9089615040565b9750508a881015611c525760405162461bcd60e51b815260206004820152601a60248201527f5377617053776565703a20616d6f756e743020746f6f206c6f770000000000006044820152606401610a65565b89871015611ca25760405162461bcd60e51b815260206004820152601a60248201527f5377617053776565703a20616d6f756e743120746f6f206c6f770000000000006044820152606401610a65565b611cd66001600160a01b037f000000000000000000000000000000000000000000000000000000000000000016338a613c8d565b611d0a6001600160a01b037f0000000000000000000000000000000000000000000000000000000000000000163389613c8d565b611d15338a8e613cbd565b604080518a8152602081018e90529081018990526060810188905233907fe08737ac48a1dab4b1a46c7dc9398bd5bfc6d7ad6fabb7cd8caa254de14def359060800160405180910390a250505050505094509492505050565b6007546001600160a01b03163314611dc85760405162461bcd60e51b815260206004820181905260248201527f4f776e61626c653a2063616c6c6572206973206e6f7420746865206f776e65726044820152606401610a65565b600855565b6007546001600160a01b03163314611e275760405162461bcd60e51b815260206004820181905260248201527f4f776e61626c653a2063616c6c6572206973206e6f7420746865206f776e65726044820152606401610a65565b611e316000613d54565b565b6001805461092290614f22565b6007546001600160a01b03163314611e9a5760405162461bcd60e51b815260206004820181905260248201527f4f776e61626c653a2063616c6c6572206973206e6f7420746865206f776e65726044820152606401610a65565b6000611ea4612fbd565b6040516370a0823160e01b8152306004820152909150611f63906001600160a01b037f000000000000000000000000000000000000000000000000000000000000000016906370a0823190602401602060405180830381865afa158015611f0f573d6000803e3d6000fd5b505050506040513d601f19601f82011682018060405250810190611f339190615058565b6001600160a01b037f00000000000000000000000000000000000000000000000000000000000000001690613c6e565b6040516370a0823160e01b815230600482015261201f907f00000000000000000000000000000000000000000000000000000000000000006001600160a01b0316906370a0823190602401602060405180830381865afa158015611fcb573d6000803e3d6000fd5b505050506040513d601f19601f82011682018060405250810190611fef9190615058565b6001600160a01b037f00000000000000000000000000000000000000000000000000000000000000001690613c6e565b600061202a82613866565b505050509050612043818361394e90919063ffffffff16565b50506040516370a0823160e01b815230600482015261210692503391506001600160a01b037f000000000000000000000000000000000000000000000000000000000000000016906370a0823190602401602060405180830381865afa1580156120b1573d6000803e3d6000fd5b505050506040513d601f19601f820116820180604052508101906120d59190615058565b6001600160a01b037f0000000000000000000000000000000000000000000000000000000000000000169190613c8d565b6040516370a0823160e01b81523060048201526121c59033906001600160a01b037f000000000000000000000000000000000000000000000000000000000000000016906370a0823190602401602060405180830381865afa158015612170573d6000803e3d6000fd5b505050506040513d601f19601f820116820180604052508101906121949190615058565b6001600160a01b037f0000000000000000000000000000000000000000000000000000000000000000169190613c8d565b33ff5b6000806121d3612fbd565b60408051606081018252600080825260208201819052918101919091529091507f00000000000000000000000000000000000000000000000000000000000000006001600160a01b0316633850c7bd6040518163ffffffff1660e01b815260040160e060405180830381865afa158015612251573d6000803e3d6000fd5b505050506040513d601f19601f820116820180604052508101906122759190614fac565b5050505060029190910b6040840152506001600160a01b03168082526122a09080600160601b6137b9565b6001600160e01b03166020820152805160009081906122c0908590613149565b915091506122ce8282613dbe565b6000612302612710846122f385600160601b89602001516001600160e01b03166137b9565b6122fd9087615040565b6137b9565b9050600061235585604001517f00000000000000000000000000000000000000000000000000000000000000007f0000000000000000000000000000000000000000000000000000000000000000613e04565b9050600061236a82612648633b9aca006137b9565b9050600061237f836127d8633b9aca006137b9565b90508184108061238e57508084115b9850505050505050505090565b336000908152600360205260408120805483919083906123bc908490614f73565b90915550506001600160a01b038316600081815260036020526040908190208054850190555133907fddf252ad1be2c89b69c2b068fc378daa952ba7f163c4a11628f55a4df523b3ef906109fe9086815260200190565b336001600160a01b037f0000000000000000000000000000000000000000000000000000000000000000161461244857600080fd5b8315612482576124826001600160a01b037f0000000000000000000000000000000000000000000000000000000000000000163386613c8d565b82156124bc576124bc6001600160a01b037f0000000000000000000000000000000000000000000000000000000000000000163385613c8d565b50505050565b428410156125125760405162461bcd60e51b815260206004820152601760248201527f5045524d49545f444541444c494e455f455850495245440000000000000000006044820152606401610a65565b6000600161251e6116e8565b6001600160a01b038a811660008181526005602090815260409182902080546001810190915582517f6e71edae12b1b97f4d1f60370fef10105fa2faae0126114a169c64845d6126c98184015280840194909452938d166060840152608083018c905260a083019390935260c08083018b90528151808403909101815260e08301909152805192019190912061190160f01b6101008301526101028201929092526101228101919091526101420160408051601f198184030181528282528051602091820120600084529083018083525260ff871690820152606081018590526080810184905260a0016020604051602081039080840390855afa15801561262a573d6000803e3d6000fd5b5050604051601f1901519150506001600160a01b038116158015906126605750876001600160a01b0316816001600160a01b0316145b6126ac5760405162461bcd60e51b815260206004820152600e60248201527f494e56414c49445f5349474e45520000000000000000000000000000000000006044820152606401610a65565b6001600160a01b0390811660009081526004602090815260408083208a8516808552908352928190208990555188815291928a16917f8c5be1e5ebec7d5bd14f71427d1e84f3dd0314c0f7b2291e5b200ac8c7c3b925910160405180910390a350505050505050565b600080612720612fbd565b90506000807f00000000000000000000000000000000000000000000000000000000000000006001600160a01b0316633850c7bd6040518163ffffffff1660e01b815260040160e060405180830381865afa158015612783573d6000803e3d6000fd5b505050506040513d601f19601f820116820180604052508101906127a79190614fac565b5050505050915091506000806127bd8585613149565b9150915060006127cc84613e72565b905060006127df83600160601b846137b9565b6002549091506127ef8583615040565b6127f99190615087565b97505050505050505090565b61283a6001600160a01b037f0000000000000000000000000000000000000000000000000000000000000000163330846134c3565b61284d6001600160a01b038316826136c2565b5050565b60008060008061285f612fbd565b905060007f00000000000000000000000000000000000000000000000000000000000000006001600160a01b0316633850c7bd6040518163ffffffff1660e01b815260040160e060405180830381865afa1580156128c1573d6000803e3d6000fd5b505050506040513d601f19601f820116820180604052508101906128e59190614fac565b50505050602085015160409095015194989197509395509350505050565b6007546001600160a01b0316331461295d5760405162461bcd60e51b815260206004820181905260248201527f4f776e61626c653a2063616c6c6572206973206e6f7420746865206f776e65726044820152606401610a65565b6001600160a01b0381166129d95760405162461bcd60e51b815260206004820152602660248201527f4f776e61626c653a206e6577206f776e657220697320746865207a65726f206160448201527f64647265737300000000000000000000000000000000000000000000000000006064820152608401610a65565b6129e281613d54565b50565b80600954426129f49190615040565b11612a675760405162461bcd60e51b815260206004820152602a60248201527f626c6f636b2e74696d657374616d70202b206d6178446561646c696e65203d3c60448201527f205f646561646c696e65000000000000000000000000000000000000000000006064820152608401610a65565b6000612a71612fbd565b60408051606081018252600080825260208201819052918101919091529091507f00000000000000000000000000000000000000000000000000000000000000006001600160a01b0316633850c7bd6040518163ffffffff1660e01b815260040160e060405180830381865afa158015612aef573d6000803e3d6000fd5b505050506040513d601f19601f82011682018060405250810190612b139190614fac565b5050505060029190910b6040840152506001600160a01b0316808252612b3e9080600160601b6137b9565b6001600160e01b03166020820152612b7e6001600160a01b037f00000000000000000000000000000000000000000000000000000000000000001661310c565b612bb07f00000000000000000000000000000000000000000000000000000000000000006001600160a01b031661310c565b600080612bc1848460000151613149565b915091506000612bea612710846122f385600160601b89602001516001600160e01b03166137b9565b90506000612c3d85604001517f00000000000000000000000000000000000000000000000000000000000000007f0000000000000000000000000000000000000000000000000000000000000000613e04565b90506000612c5d84600160601b88602001516001600160e01b03166137b9565b90506000612c79612c6e8784615040565b84633b9aca006137b9565b9050600080612cea604051806101000160405280600081526020016000815260200160006001600160a01b0316815260200160006001600160a01b0316815260200160006001600160a01b0316815260200160006001600160a01b0316815260200160008152602001600081525090565b612cfb86612648633b9aca006137b9565b871015612e3757612d27612d0f8a86614f73565b8b602001516001600160e01b0316600160601b6137b9565b9250612d4583600160601b8c602001516001600160e01b03166137b9565b91506040518061010001604052808481526020018381526020017f00000000000000000000000000000000000000000000000000000000000000006001600160a01b031681526020017f00000000000000000000000000000000000000000000000000000000000000006001600160a01b031681526020017f00000000000000000000000000000000000000000000000000000000000000006001600160a01b031681526020017f00000000000000000000000000000000000000000000000000000000000000006001600160a01b031681526020018d81526020016008548152509050612e3281613e98565b612f64565b612e48866127d8633b9aca006137b9565b871115612f6457612e59848a614f73565b9250612e77838b602001516001600160e01b0316600160601b6137b9565b91506040518061010001604052808481526020018381526020017f00000000000000000000000000000000000000000000000000000000000000006001600160a01b031681526020017f00000000000000000000000000000000000000000000000000000000000000006001600160a01b031681526020017f00000000000000000000000000000000000000000000000000000000000000006001600160a01b031681526020017f00000000000000000000000000000000000000000000000000000000000000006001600160a01b031681526020018d81526020016008548152509050612f6481613e98565b60025460408051898152602081019290925281018a9052606081018990527f802a0d65ee1ffb3e6af96deafe1fc3e6402b2672a2f4b79d1b23c4a06c998f349060800160405180910390a1505050505050505050505050565b604080516060810182526000808252602082018190529181019190915250604080518082018252600c54600281810b83526301000000909104810b602080840191825284516060810186526001600160a01b037f00000000000000000000000000000000000000000000000000000000000000001681529351830b9084015251900b9181019190915290565b806040015160020b816020015160020b14156130625750565b600061306d82613866565b505050509050806001600160801b031660001461284d5781516020830151604080850151905163a34123a760e01b8152600292830b6004820152910b6024820152600060448201526001600160a01b039091169063a34123a79060640160408051808303816000875af11580156130e8573d6000803e3d6000fd5b505050506040513d601f19601f820116820180604052508101906124bc91906150a9565b6040805160048152602481019091526020810180516001600160e01b0316630302f06b60e31b17905261284d906001600160a01b03831690614106565b6040516370a0823160e01b815230600482015260009081908190819081906001600160a01b037f000000000000000000000000000000000000000000000000000000000000000016906370a0823190602401602060405180830381865afa1580156131b8573d6000803e3d6000fd5b505050506040513d601f19601f820116820180604052508101906131dc9190615058565b6040516370a0823160e01b81523060048201529095507f00000000000000000000000000000000000000000000000000000000000000006001600160a01b0316906370a0823190602401602060405180830381865afa158015613243573d6000803e3d6000fd5b505050506040513d601f19601f820116820180604052508101906132679190615058565b9350866040015160020b876020015160020b146132e05761328787613866565b6001600160801b039182169750169450919250600091508190506132ac89898561412b565b90925090506132bb8583615040565b6132c59088615040565b96506132d18482615040565b6132db9087615040565b955050505b5050509250929050565b600080808915806132fa57508815155b8061330457508715155b613310576133106150cd565b89613417576000613362857f00000000000000000000000000000000000000000000000000000000000000007f0000000000000000000000000000000000000000000000000000000000000000613e04565b9050600061337e6001600160a01b03881680600160601b6137b9565b905061339888600160601b836001600160e01b03166137b9565b935081633b9aca0014156133ad5760006133c0565b6133c084836122fd81633b9aca00614f73565b9350888410156133d557879250829450613410565b8893506133f084826001600160e01b0316600160601b6137b9565b925061340a8361340484633b9aca00614f73565b846137b9565b92508394505b50506134b6565b88613430575084613429818b8a6137b9565b92506134b6565b8761344357869150613429828b8b6137b9565b6000888a1061345e57613457888a8c6137b9565b871061346c565b8761346a888c8c6137b9565b105b9050801561349657869150613482828b8b6137b9565b925061348f828c8b6137b9565b93506134b4565b8792506134a4838a8c6137b9565b91506134b1838c8c6137b9565b93505b505b9750975097945050505050565b6040516001600160a01b03808516602483015283166044820152606481018290526124bc9085906323b872dd60e01b906084015b60408051601f198184030181529190526020810180516001600160e01b03167fffffffff000000000000000000000000000000000000000000000000000000009093169290921790915261415e565b600080600061355486613e72565b9050600061356788600160601b846137b9565b905060006135856135788b84615040565b600b54633b9aca006137b9565b90506000613594898989613e04565b90506135a58282633b9aca006137b9565b95506135bf6135b48784614f73565b85600160601b6137b9565b9450505050509550959350505050565b60006135f6846135e28760200151614243565b6135ef8860400151614243565b8686614596565b95945050505050565b6000806001600160801b038316156136bb57835160208501516040808701519051633c8a7d8d60e01b8152306004820152600292830b6024820152910b60448201526001600160801b038516606482015260a06084820152600060a48201526001600160a01b0390911690633c8a7d8d9060c40160408051808303816000875af1158015613691573d6000803e3d6000fd5b505050506040513d601f19601f820116820180604052508101906136b591906150a9565b90925090505b9250929050565b604051602481018290526137379063b6b55f2560e01b906044015b60408051601f198184030181529190526020810180516001600160e01b03167fffffffff00000000000000000000000000000000000000000000000000000000909316929092179091526001600160a01b03841690614106565b505050565b806002600082825461374e9190615040565b90915550506001600160a01b038316600081815260036020908152604080832080548601905585835260068252808320805486019055518481527fddf252ad1be2c89b69c2b068fc378daa952ba7f163c4a11628f55a4df523b3ef91015b60405180910390a3505050565b6000816137c557600080fd5b60008060001985870985870292508281108382030391505080600014156137f157508290049050610b60565b8381106137fd57600080fd5b60008486880960026001871981018816978890046003810283188082028403028082028403028082028403028082028403028082028403029081029092039091026000889003889004909101858311909403939093029303949094049190911702949350505050565b600080600080600085600001516001600160a01b031663514ea4bf30886020015189604001516040516020016138c79392919060609390931b6bffffffffffffffffffffffff1916835260e891821b6014840152901b6017820152601a0190565b604051602081830303815290604052805190602001206040518263ffffffff1660e01b81526004016138fb91815260200190565b60a060405180830381865afa158015613918573d6000803e3d6000fd5b505050506040513d601f19601f8201168201806040525081019061393c91906150fa565b939a9299509097509550909350915050565b60008080806001600160801b038516156139f85785516020870151604080890151905163a34123a760e01b8152600292830b6004820152910b60248201526001600160801b03871660448201526001600160a01b039091169063a34123a79060640160408051808303816000875af11580156139ce573d6000803e3d6000fd5b505050506040513d601f19601f820116820180604052508101906139f291906150a9565b90945092505b8551602087015160408089015190516309e3d67b60e31b8152306004820152600292830b6024820152910b60448201526001600160801b0360648201819052608482015260009182916001600160a01b0390911690634f1eb3d89060a40160408051808303816000875af1158015613a74573d6000803e3d6000fd5b505050506040513d601f19601f82011682018060405250810190613a989190615151565b96999598506001600160801b039081168a900397509095168790039450505050565b6040516370a0823160e01b815230600482015260009081906001600160a01b037f000000000000000000000000000000000000000000000000000000000000000016906370a0823190602401602060405180830381865afa158015613b23573d6000803e3d6000fd5b505050506040513d601f19601f82011682018060405250810190613b479190615058565b905080831115613b55578092505b613b886001600160a01b037f00000000000000000000000000000000000000000000000000000000000000001684613c6e565b5090919050565b6129e281604051602401613ba591815260200190565b60408051601f198184030181529190526020810180516001600160e01b031663f5b1bba960e01b179052614658565b60007f8b73c3c69bb8fe3d512ecc4cf759cc79239f7b179b0ffacaa9a75d522b39400f6000604051613c069190615184565b6040805191829003822060208301939093528101919091527fc89efdaa54c0f20c7adf612882df0950f5a951637e0307cdcb4c672f298b8bc660608201524660808201523060a082015260c00160405160208183030381529060405280519060200120905090565b6040516024810182905261373790632e1a7d4d60e01b906044016136dd565b6040516001600160a01b03831660248201526044810182905261373790849063a9059cbb60e01b906064016134f7565b6001600160a01b03831660009081526003602052604081208054839290613ce5908490614f73565b909155505060008281526006602052604081208054839290613d08908490614f73565b90915550506002805482900390556040518181526000906001600160a01b038516907fddf252ad1be2c89b69c2b068fc378daa952ba7f163c4a11628f55a4df523b3ef906020016137ac565b600780546001600160a01b038381167fffffffffffffffffffffffff0000000000000000000000000000000000000000831681179093556040519116919082907f8be0079c531659141344cd1fd0a4f28419497f9722a3daafe3b4186f6b6457e090600090a35050565b604051602481018390526044810182905261284d9060640160408051601f198184030181529190526020810180516001600160e01b031662d81ed360e71b179052614658565b60008260020b8460020b13613e1b57506000610b60565b8160020b8460020b12613e335750633b9aca00610b60565b613e3d8383615220565b62ffffff16633b9aca00613e518685615220565b62ffffff16613e609190615268565b613e6a9190615087565b949350505050565b600080613e7e83614243565b6001600160a01b03169050610b608182600160601b6137b9565b80516080820151613eb4916001600160a01b0390911690613c6e565b600060405180610100016040528083604001516001600160a01b0316815260200183606001516001600160a01b031681526020017f00000000000000000000000000000000000000000000000000000000000000006001600160a01b031663ddca3f436040518163ffffffff1660e01b8152600401602060405180830381865afa158015613f46573d6000803e3d6000fd5b505050506040513d601f19601f82011682018060405250810190613f6a9190615287565b62ffffff168152306020820152604001613f8542601e615040565b815260200183600001518152602001613fba84602001518560e00151633b9aca00613fb09190614f73565b633b9aca006137b9565b81526000602090910152600a5483516040850151929350613fe8926001600160a01b03908116921690614679565b600a546040805163414bf38960e01b815283516001600160a01b0390811660048301526020850151811660248301529184015162ffffff1660448201526060840151821660648201526080840151608482015260a084015160a482015260c084015160c482015260e0840151821660e4820152600092919091169063414bf38990610104016020604051808303816000875af115801561408c573d6000803e3d6000fd5b505050506040513d601f19601f820116820180604052508101906140b09190615058565b600a5460408501519192506140d3916001600160a01b0390811691166000614679565b6137376001600160a01b037f000000000000000000000000000000000000000000000000000000000000000016826136c2565b6060610b60838360405180606001604052806027815260200161534c60279139614795565b6000806141528461413f8760200151614243565b61414c8860400151614243565b8661487f565b91509150935093915050565b60006141b3826040518060400160405280602081526020017f5361666545524332303a206c6f772d6c6576656c2063616c6c206661696c6564815250856001600160a01b031661491b9092919063ffffffff16565b80519091501561373757808060200190518101906141d191906152ac565b6137375760405162461bcd60e51b815260206004820152602a60248201527f5361666545524332303a204552433230206f7065726174696f6e20646964206e60448201527f6f742073756363656564000000000000000000000000000000000000000000006064820152608401610a65565b60008060008360020b1261425a578260020b614267565b8260020b614267906152c7565b9050614276620d89e7196152e4565b62ffffff168111156142ae5760405162461bcd60e51b81526020600482015260016024820152601560fa1b6044820152606401610a65565b6000600182166142cf577001000000000000000000000000000000006142e1565b6ffffcb933bd6fad37aa2d162d1a5940015b70ffffffffffffffffffffffffffffffffff1690506002821615614315576ffff97272373d413259a46990580e213a0260801c5b6004821615614334576ffff2e50f5f656932ef12357cf3c7fdcc0260801c5b6008821615614353576fffe5caca7e10e4e61c3624eaa0941cd00260801c5b6010821615614372576fffcb9843d60f6159c9db58835c9266440260801c5b6020821615614391576fff973b41fa98c081472e6896dfb254c00260801c5b60408216156143b0576fff2ea16466c96a3843ec78b326b528610260801c5b60808216156143cf576ffe5dee046a99a2a811c461f1969c30530260801c5b6101008216156143ef576ffcbe86c7900a88aedcffc83b479aa3a40260801c5b61020082161561440f576ff987a7253ac413176f2b074cf7815e540260801c5b61040082161561442f576ff3392b0822b70005940c7a398e4b70f30260801c5b61080082161561444f576fe7159475a2c29b7443b29c7fa6e889d90260801c5b61100082161561446f576fd097f3bdfd2022b8845ad8f792aa58250260801c5b61200082161561448f576fa9f746462d870fdf8a65dc1f90e061e50260801c5b6140008216156144af576f70d869a156d2a1b890bb3df62baf32f70260801c5b6180008216156144cf576f31be135f97d08fd981231505542fcfa60260801c5b620100008216156144f0576f09aa508b5b7a84e1c677de54f3e99bc90260801c5b62020000821615614510576e5d6af8dedb81196699c329225ee6040260801c5b6204000082161561452f576d2216e584f5fa1ea926041bedfe980260801c5b6208000082161561454c576b048a170391f7dc42444e8fa20260801c5b60008460020b131561456d57806000198161456957614569615071565b0490505b640100000000810615614581576001614584565b60005b60ff16602082901c0192505050919050565b6000836001600160a01b0316856001600160a01b031611156145b6579293925b846001600160a01b0316866001600160a01b0316116145e1576145da85858561492a565b90506135f6565b836001600160a01b0316866001600160a01b0316101561464357600061460887868661492a565b90506000614617878986614994565b9050806001600160801b0316826001600160801b031610614638578061463a565b815b925050506135f6565b61464e858584614994565b9695505050505050565b80516a636f6e736f6c652e6c6f67602083016000808483855afa5050505050565b8015806146f35750604051636eb1769f60e11b81523060048201526001600160a01b03838116602483015284169063dd62ed3e90604401602060405180830381865afa1580156146cd573d6000803e3d6000fd5b505050506040513d601f19601f820116820180604052508101906146f19190615058565b155b6147655760405162461bcd60e51b815260206004820152603660248201527f5361666545524332303a20617070726f76652066726f6d206e6f6e2d7a65726f60448201527f20746f206e6f6e2d7a65726f20616c6c6f77616e6365000000000000000000006064820152608401610a65565b6040516001600160a01b03831660248201526044810182905261373790849063095ea7b360e01b906064016134f7565b60606001600160a01b0384163b6148145760405162461bcd60e51b815260206004820152602660248201527f416464726573733a2064656c65676174652063616c6c20746f206e6f6e2d636f60448201527f6e747261637400000000000000000000000000000000000000000000000000006064820152608401610a65565b600080856001600160a01b03168560405161482f9190615307565b600060405180830381855af49150503d806000811461486a576040519150601f19603f3d011682016040523d82523d6000602084013e61486f565b606091505b509150915061464e8282866149ca565b600080836001600160a01b0316856001600160a01b031611156148a0579293925b846001600160a01b0316866001600160a01b0316116148cb576148c4858585614a03565b9150614912565b836001600160a01b0316866001600160a01b03161015614904576148f0868585614a03565b91506148fd858785614a75565b9050614912565b61490f858585614a75565b90505b94509492505050565b6060613e6a8484600085614abf565b6000826001600160a01b0316846001600160a01b0316111561494a579192915b600061496d856001600160a01b0316856001600160a01b0316600160601b6137b9565b90506135f661498f84836149818989615323565b6001600160a01b03166137b9565b614c07565b6000826001600160a01b0316846001600160a01b031611156149b4579192915b613e6a61498f83600160601b6149818888615323565b606083156149d9575081610b60565b8251156149e95782518084602001fd5b8160405162461bcd60e51b8152600401610a659190614c4e565b6000826001600160a01b0316846001600160a01b03161115614a23579192915b6001600160a01b038416613e607bffffffffffffffffffffffffffffffff000000000000000000000000606085901b16614a5d8787615323565b6001600160a01b0316866001600160a01b03166137b9565b6000826001600160a01b0316846001600160a01b03161115614a95579192915b613e6a6001600160801b038316614aac8686615323565b6001600160a01b0316600160601b6137b9565b606082471015614b375760405162461bcd60e51b815260206004820152602660248201527f416464726573733a20696e73756666696369656e742062616c616e636520666f60448201527f722063616c6c00000000000000000000000000000000000000000000000000006064820152608401610a65565b6001600160a01b0385163b614b8e5760405162461bcd60e51b815260206004820152601d60248201527f416464726573733a2063616c6c20746f206e6f6e2d636f6e74726163740000006044820152606401610a65565b600080866001600160a01b03168587604051614baa9190615307565b60006040518083038185875af1925050503d8060008114614be7576040519150601f19603f3d011682016040523d82523d6000602084013e614bec565b606091505b5091509150614bfc8282866149ca565b979650505050505050565b806001600160801b0381168114614c1d57600080fd5b919050565b60005b83811015614c3d578181015183820152602001614c25565b838111156124bc5750506000910152565b6020815260008251806020840152614c6d816040850160208701614c22565b601f01601f19169190910160400192915050565b6001600160a01b03811681146129e257600080fd5b60008060408385031215614ca957600080fd5b8235614cb481614c81565b946020939093013593505050565b600060208284031215614cd457600080fd5b5035919050565b600080600060608486031215614cf057600080fd5b8335614cfb81614c81565b92506020840135614d0b81614c81565b929592945050506040919091013590565b600060a08284031215614d2e57600080fd5b60405160a0810181811067ffffffffffffffff82111715614d5f57634e487b7160e01b600052604160045260246000fd5b806040525082358152602083013560208201526040830135604082015260608301356060820152608083013560808201528091505092915050565b60008060008060808587031215614db057600080fd5b5050823594602084013594506040840135936060013592509050565b600060208284031215614dde57600080fd5b8135610b6081614c81565b60008060008060608587031215614dff57600080fd5b8435935060208501359250604085013567ffffffffffffffff80821115614e2557600080fd5b818701915087601f830112614e3957600080fd5b813581811115614e4857600080fd5b886020828501011115614e5a57600080fd5b95989497505060200194505050565b60ff811681146129e257600080fd5b600080600080600080600060e0888a031215614e9357600080fd5b8735614e9e81614c81565b96506020880135614eae81614c81565b955060408801359450606088013593506080880135614ecc81614e69565b9699959850939692959460a0840135945060c09093013592915050565b60008060408385031215614efc57600080fd5b8235614f0781614c81565b91506020830135614f1781614c81565b809150509250929050565b600181811c90821680614f3657607f821691505b60208210811415614f5757634e487b7160e01b600052602260045260246000fd5b50919050565b634e487b7160e01b600052601160045260246000fd5b600082821015614f8557614f85614f5d565b500390565b805161ffff81168114614c1d57600080fd5b80518015158114614c1d57600080fd5b600080600080600080600060e0888a031215614fc757600080fd5b8751614fd281614c81565b8097505060208801518060020b8114614fea57600080fd5b9550614ff860408901614f8a565b945061500660608901614f8a565b935061501460808901614f8a565b925060a088015161502481614e69565b915061503260c08901614f9c565b905092959891949750929550565b6000821982111561505357615053614f5d565b500190565b60006020828403121561506a57600080fd5b5051919050565b634e487b7160e01b600052601260045260246000fd5b6000826150a457634e487b7160e01b600052601260045260246000fd5b500490565b600080604083850312156150bc57600080fd5b505080516020909101519092909150565b634e487b7160e01b600052600160045260246000fd5b80516001600160801b0381168114614c1d57600080fd5b600080600080600060a0868803121561511257600080fd5b61511b866150e3565b94506020860151935060408601519250615137606087016150e3565b9150615145608087016150e3565b90509295509295909350565b6000806040838503121561516457600080fd5b61516d836150e3565b915061517b602084016150e3565b90509250929050565b600080835481600182811c9150808316806151a057607f831692505b60208084108214156151c057634e487b7160e01b86526022600452602486fd5b8180156151d457600181146151e557615212565b60ff19861689528489019650615212565b60008a81526020902060005b8681101561520a5781548b8201529085019083016151f1565b505084890196505b509498975050505050505050565b60008160020b8360020b6000811281627fffff190183128115161561524757615247614f5d565b81627fffff01831381161561525e5761525e614f5d565b5090039392505050565b600081600019048311821515161561528257615282614f5d565b500290565b60006020828403121561529957600080fd5b815162ffffff81168114610b6057600080fd5b6000602082840312156152be57600080fd5b610b6082614f9c565b6000600160ff1b8214156152dd576152dd614f5d565b5060000390565b60008160020b627fffff198114156152fe576152fe614f5d565b60000392915050565b60008251615319818460208701614c22565b9190910192915050565b60006001600160a01b038381169083168181101561534357615343614f5d565b03939250505056fe416464726573733a206c6f772d6c6576656c2064656c65676174652063616c6c206661696c6564a164736f6c634300080a000a",
  "linkReferences": {},
  "deployedLinkReferences": {}
}