{
  "_format": "hh-sol-artifact-1",
  "contractName": "CompoundCEtherSilo",
  "sourceName": "contracts/CompoundCEtherSilo.sol",
  "abi": [
    {
      "inputs": [
        {
          "internalType": "contract ICEther",
          "name": "_cEther",
          "type": "address"
        }
      ],
      "stateMutability": "nonpayable",
      "type": "constructor"
    },
    {
      "inputs": [
        {
          "internalType": "address",
          "name": "account",
          "type": "address"
        }
      ],
      "name": "balanceOf",
      "outputs": [
        {
          "internalType": "uint256",
          "name": "balance",
          "type": "uint256"
        }
      ],
      "stateMutability": "view",
      "type": "function"
    },
    {
      "inputs": [],
      "name": "cEther",
      "outputs": [
        {
          "internalType": "contract ICEther",
          "name": "",
          "type": "address"
        }
      ],
      "stateMutability": "view",
      "type": "function"
    },
    {
      "inputs": [
        {
          "internalType": "uint256",
          "name": "amount",
          "type": "uint256"
        }
      ],
      "name": "deposit",
      "outputs": [],
      "stateMutability": "nonpayable",
      "type": "function"
    },
    {
      "inputs": [],
      "name": "name",
      "outputs": [
        {
          "internalType": "string",
          "name": "",
          "type": "string"
        }
      ],
      "stateMutability": "view",
      "type": "function"
    },
    {
      "inputs": [],
      "name": "poke",
      "outputs": [],
      "stateMutability": "nonpayable",
      "type": "function"
    },
    {
      "inputs": [
        {
          "internalType": "address",
          "name": "token",
          "type": "address"
        }
      ],
      "name": "shouldAllowRemovalOf",
      "outputs": [
        {
          "internalType": "bool",
          "name": "shouldAllow",
          "type": "bool"
        }
      ],
      "stateMutability": "view",
      "type": "function"
    },
    {
      "inputs": [
        {
          "internalType": "uint256",
          "name": "amount",
          "type": "uint256"
        }
      ],
      "name": "withdraw",
      "outputs": [],
      "stateMutability": "nonpayable",
      "type": "function"
    }
  ],
  "bytecode": "0x60a060405234801561001057600080fd5b5060405161088c38038061088c83398101604081905261002f91610040565b6001600160a01b0316608052610070565b60006020828403121561005257600080fd5b81516001600160a01b038116811461006957600080fd5b9392505050565b6080516107d16100bb6000396000818160e401528181610134015281816101b701528181610255015281816102fe01528181610456015281816104c301526105c601526107d16000f3fe608060405234801561001057600080fd5b506004361061007d5760003560e01c806319b68c001161005b57806319b68c001461012f5780632e1a7d4d1461016e57806370a0823114610181578063b6b55f25146101a257600080fd5b806306fdde03146100825780631363efd8146100d45780631817835814610125575b600080fd5b6100be6040518060400160405280601281526020017f436f6d706f756e6420574554482053696c6f000000000000000000000000000081525081565b6040516100cb91906106ee565b60405180910390f35b6101156100e2366004610743565b7f00000000000000000000000000000000000000000000000000000000000000006001600160a01b039081169116141590565b60405190151581526020016100cb565b61012d6101b5565b005b6101567f000000000000000000000000000000000000000000000000000000000000000081565b6040516001600160a01b0390911681526020016100cb565b61012d61017c36600461076c565b61023c565b61019461018f366004610743565b610430565b6040519081526020016100cb565b61012d6101b036600461076c565b610557565b7f00000000000000000000000000000000000000000000000000000000000000006001600160a01b031663a6afed956040518163ffffffff1660e01b81526004016020604051808303816000875af1158015610215573d6000803e3d6000fd5b505050506040513d601f19601f820116820180604052508101906102399190610785565b50565b806102445750565b60006102da82670de0b6b3a76400007f00000000000000000000000000000000000000000000000000000000000000006001600160a01b031663182df0f56040518163ffffffff1660e01b8152600401602060405180830381865afa1580156102b1573d6000803e3d6000fd5b505050506040513d601f19601f820116820180604052508101906102d59190610785565b61063b565b6102e590600161079e565b60405163db006a7560e01b8152600481018290529091507f00000000000000000000000000000000000000000000000000000000000000006001600160a01b03169063db006a75906024016020604051808303816000875af115801561034f573d6000803e3d6000fd5b505050506040513d601f19601f820116820180604052508101906103739190610785565b156103c45760405162461bcd60e51b815260206004820152601b60248201527f436f6d706f756e643a2072656465656d20455448206661696c65640000000000604482015260640160405180910390fd5b73c02aaa39b223fe8d0a0e5c4f27ead9083c756cc26001600160a01b031663d0e30db0836040518263ffffffff1660e01b81526004016000604051808303818588803b15801561041357600080fd5b505af1158015610427573d6000803e3d6000fd5b50505050505050565b6040516370a0823160e01b81526001600160a01b038281166004830152600091610551917f000000000000000000000000000000000000000000000000000000000000000016906370a0823190602401602060405180830381865afa15801561049d573d6000803e3d6000fd5b505050506040513d601f19601f820116820180604052508101906104c19190610785565b7f00000000000000000000000000000000000000000000000000000000000000006001600160a01b031663182df0f56040518163ffffffff1660e01b8152600401602060405180830381865afa15801561051f573d6000803e3d6000fd5b505050506040513d601f19601f820116820180604052508101906105439190610785565b670de0b6b3a764000061063b565b92915050565b8061055f5750565b604051632e1a7d4d60e01b81526004810182905273c02aaa39b223fe8d0a0e5c4f27ead9083c756cc290632e1a7d4d90602401600060405180830381600087803b1580156105ac57600080fd5b505af11580156105c0573d6000803e3d6000fd5b505050507f00000000000000000000000000000000000000000000000000000000000000006001600160a01b0316631249c58b826040518263ffffffff1660e01b81526004016000604051808303818588803b15801561061f57600080fd5b505af1158015610633573d6000803e3d6000fd5b505050505050565b60008161064757600080fd5b6000806000198587098587029250828110838203039150508060001415610673575082900490506106e7565b83811061067f57600080fd5b600084868809851960019081018716968790049682860381900495909211909303600082900391909104909201919091029190911760038402600290811880860282030280860282030280860282030280860282030280860282030280860290910302029150505b9392505050565b600060208083528351808285015260005b8181101561071b578581018301518582016040015282016106ff565b8181111561072d576000604083870101525b50601f01601f1916929092016040019392505050565b60006020828403121561075557600080fd5b81356001600160a01b03811681146106e757600080fd5b60006020828403121561077e57600080fd5b5035919050565b60006020828403121561079757600080fd5b5051919050565b600082198211156107bf57634e487b7160e01b600052601160045260246000fd5b50019056fea164736f6c634300080a000a",
  "linkReferences": {},
  "deployedLinkReferences": {}
}