{
  "_format": "hh-sol-artifact-1",
  "contractName": "Factory",
  "sourceName": "contracts/Factory.sol",
  "abi": [
    {
      "inputs": [
        {
          "internalType": "bytes",
          "name": "_creationCode",
          "type": "bytes"
        }
      ],
      "stateMutability": "nonpayable",
      "type": "constructor"
    },
    {
      "anonymous": false,
      "inputs": [
        {
          "indexed": true,
          "internalType": "contract SwapSweep",
          "name": "vault",
          "type": "address"
        }
      ],
      "name": "CreateVault",
      "type": "event"
    },
    {
      "inputs": [
        {
          "internalType": "contract IUniswapV3Pool",
          "name": "pool",
          "type": "address"
        },
        {
          "internalType": "contract ISwapRouter",
          "name": "_router",
          "type": "address"
        },
        {
          "internalType": "contract ISilo",
          "name": "silo0",
          "type": "address"
        },
        {
          "internalType": "contract ISilo",
          "name": "silo1",
          "type": "address"
        },
        {
          "internalType": "int24",
          "name": "_minTick",
          "type": "int24"
        },
        {
          "internalType": "int24",
          "name": "_maxTick",
          "type": "int24"
        },
        {
          "internalType": "int24",
          "name": "_subDivisions",
          "type": "int24"
        }
      ],
      "name": "createVault",
      "outputs": [
        {
          "internalType": "contract SwapSweep",
          "name": "vault",
          "type": "address"
        }
      ],
      "stateMutability": "nonpayable",
      "type": "function"
    },
    {
      "inputs": [
        {
          "internalType": "contract SwapSweep",
          "name": "",
          "type": "address"
        }
      ],
      "name": "didCreateVault",
      "outputs": [
        {
          "internalType": "bool",
          "name": "",
          "type": "bool"
        }
      ],
      "stateMutability": "view",
      "type": "function"
    },
    {
      "inputs": [],
      "name": "getCreationCode",
      "outputs": [
        {
          "internalType": "bytes",
          "name": "",
          "type": "bytes"
        }
      ],
      "stateMutability": "view",
      "type": "function"
    },
    {
      "inputs": [],
      "name": "getCreationCodeContracts",
      "outputs": [
        {
          "internalType": "address",
          "name": "contractA",
          "type": "address"
        },
        {
          "internalType": "address",
          "name": "contractB",
          "type": "address"
        }
      ],
      "stateMutability": "view",
      "type": "function"
    },
    {
      "inputs": [
        {
          "internalType": "contract IUniswapV3Pool",
          "name": "",
          "type": "address"
        },
        {
          "internalType": "contract ISilo",
          "name": "",
          "type": "address"
        },
        {
          "internalType": "contract ISilo",
          "name": "",
          "type": "address"
        }
      ],
      "name": "getVault",
      "outputs": [
        {
          "internalType": "contract SwapSweep",
          "name": "",
          "type": "address"
        }
      ],
      "stateMutability": "view",
      "type": "function"
    }
  ],
  "bytecode": "0x61010060405234801561001157600080fd5b506040516108f63803806108f68339810160408190526100309161011d565b8051819060006100416002836101ec565b60a081905290506000610054828461020e565b60e0819052828552905083610073816100b9602090811b61031617901c565b6001600160a01b0316608052828501805183825261009b826100b9602090811b61031617901c565b6001600160a01b031660c05294909152929092525061023392505050565b80517f602038038060206000396000f3fefefefefefefefefefefefefefefefefefefe808352600091602081018484f090845291506001600160a01b03821661010157600080fd5b50919050565b634e487b7160e01b600052604160045260246000fd5b6000602080838503121561013057600080fd5b82516001600160401b038082111561014757600080fd5b818501915085601f83011261015b57600080fd5b81518181111561016d5761016d610107565b604051601f8201601f19908116603f0116810190838211818310171561019557610195610107565b8160405282815288868487010111156101ad57600080fd5b600093505b828410156101cf57848401860151818501870152928501926101b2565b828411156101e05760008684830101525b98975050505050505050565b60008261020957634e487b7160e01b600052601260045260246000fd5b500490565b60008282101561022e57634e487b7160e01b600052601160045260246000fd5b500390565b60805160a05160c05160e05161067e61027860003960006103cb01526000818160e701526103aa0152600061038901526000818160c20152610368015261067e6000f3fe608060405234801561001057600080fd5b50600436106100665760003560e01c8063174481fa11610050578063174481fa146100b4578063347c5d43146101125780634f33c8091461014b57600080fd5b8062c194db1461006b578063010fb13114610089575b600080fd5b61007361017e565b60405161008091906104ca565b60405180910390f35b61009c61009736600461054e565b61019d565b6040516001600160a01b039091168152602001610080565b604080516001600160a01b037f0000000000000000000000000000000000000000000000000000000000000000811682527f000000000000000000000000000000000000000000000000000000000000000016602082015201610080565b61009c6101203660046105dc565b600060208181529381526040808220855292815282812090935282529020546001600160a01b031681565b61016e610159366004610627565b60016020526000908152604090205460ff1681565b6040519015158152602001610080565b606061019860405180602001604052806000815250610364565b905090565b604080516001600160a01b03808a1660208301528089169282019290925281871660608201529085166080820152600284810b60a083015283810b60c083015282900b60e082015260009081906101000160408051601f198184030181528282526001600160a01b03808d166020850152808c1692840192909252818a1660608401529088166080830152600287810b60a084015286810b60c084015285900b60e083015291506000906101000160405160208183030381529060405280519060200120905061026d8282610450565b6001600160a01b038b81166000908152602081815260408083208d8516845282528083208c85168452825280832080547fffffffffffffffffffffffff0000000000000000000000000000000000000000169486169485179055838352600191829052808320805460ff19169092179091555192955090917ffb83ca910097c70646250238daf4abcd392f91992164890d564d81e0e218f2b29190a25050979650505050505050565b80517f602038038060206000396000f3fefefefefefefefefefefefefefefefefefefe808352600091602081018484f090845291506001600160a01b03821661035e57600080fd5b50919050565b60607f00000000000000000000000000000000000000000000000000000000000000007f00000000000000000000000000000000000000000000000000000000000000007f00000000000000000000000000000000000000000000000000000000000000007f000000000000000000000000000000000000000000000000000000000000000060006103f6828561064b565b87519091506000610407828461064b565b9050604051975060208101880160405280885260208801866000828a3c846000888301883c506020898101908985010161044281838661048c565b505050505050505050919050565b60008061045c84610364565b90506000838251602084016000f590506001600160a01b038116610484573d6000803e3d6000fd5b949350505050565b5b602081106104ac578151835260209283019290910190601f190161048d565b905182516020929092036101000a6000190180199091169116179052565b600060208083528351808285015260005b818110156104f7578581018301518582016040015282016104db565b81811115610509576000604083870101525b50601f01601f1916929092016040019392505050565b6001600160a01b038116811461053457600080fd5b50565b8035600281900b811461054957600080fd5b919050565b600080600080600080600060e0888a03121561056957600080fd5b87356105748161051f565b965060208801356105848161051f565b955060408801356105948161051f565b945060608801356105a48161051f565b93506105b260808901610537565b92506105c060a08901610537565b91506105ce60c08901610537565b905092959891949750929550565b6000806000606084860312156105f157600080fd5b83356105fc8161051f565b9250602084013561060c8161051f565b9150604084013561061c8161051f565b809150509250925092565b60006020828403121561063957600080fd5b81356106448161051f565b9392505050565b6000821982111561066c57634e487b7160e01b600052601160045260246000fd5b50019056fea164736f6c634300080a000a",
  "linkReferences": {},
  "deployedLinkReferences": {}
}