{
  "_format": "hh-sol-artifact-1",
  "contractName": "SwapSweepResolver",
  "sourceName": "contracts/SwapSweepResolver.sol",
  "abi": [
    {
      "inputs": [
        {
          "internalType": "address",
          "name": "_swapSweep",
          "type": "address"
        }
      ],
      "stateMutability": "nonpayable",
      "type": "constructor"
    },
    {
      "inputs": [],
      "name": "SWAP_SWEEP",
      "outputs": [
        {
          "internalType": "contract ISwapSweep",
          "name": "",
          "type": "address"
        }
      ],
      "stateMutability": "view",
      "type": "function"
    },
    {
      "inputs": [
        {
          "internalType": "uint256",
          "name": "_deadline",
          "type": "uint256"
        }
      ],
      "name": "checkCanRebalance",
      "outputs": [
        {
          "internalType": "bool",
          "name": "canExec",
          "type": "bool"
        },
        {
          "internalType": "bytes",
          "name": "execPayload",
          "type": "bytes"
        }
      ],
      "stateMutability": "view",
      "type": "function"
    },
    {
      "inputs": [],
      "name": "checkCanReposition",
      "outputs": [
        {
          "internalType": "bool",
          "name": "canExec",
          "type": "bool"
        },
        {
          "internalType": "bytes",
          "name": "execPayload",
          "type": "bytes"
        }
      ],
      "stateMutability": "view",
      "type": "function"
    }
  ],
  "bytecode": "0x60a060405234801561001057600080fd5b506040516103fb3803806103fb83398101604081905261002f91610040565b6001600160a01b0316608052610070565b60006020828403121561005257600080fd5b81516001600160a01b038116811461006957600080fd5b9392505050565b60805161036461009760003960008181607d0152818160ca01526101a401526103646000f3fe608060405234801561001057600080fd5b50600436106100415760003560e01c80632eb3ec411461004657806330f3943214610065578063f8ae8e7314610078575b600080fd5b61004e6100c4565b60405161005c929190610290565b60405180910390f35b61004e6100733660046102ef565b61019e565b61009f7f000000000000000000000000000000000000000000000000000000000000000081565b60405173ffffffffffffffffffffffffffffffffffffffff909116815260200161005c565b600060607f000000000000000000000000000000000000000000000000000000000000000073ffffffffffffffffffffffffffffffffffffffff16633911b4a66040518163ffffffff1660e01b8152600401602060405180830381865afa158015610133573d6000803e3d6000fd5b505050506040513d601f19601f820116820180604052508101906101579190610308565b6040805160048152602481019091526020810180517bffffffffffffffffffffffffffffffffffffffffffffffffffffffff166318242c2f60e11b17905290939092509050565b600060607f000000000000000000000000000000000000000000000000000000000000000073ffffffffffffffffffffffffffffffffffffffff1663a06880c06040518163ffffffff1660e01b8152600401602060405180830381865afa15801561020d573d6000803e3d6000fd5b505050506040513d601f19601f820116820180604052508101906102319190610308565b915061023d8342610331565b604080516024808201939093528151808203909301835260440190526020810180517bffffffffffffffffffffffffffffffffffffffffffffffffffffffff16631e93260360e31b179052919391925050565b821515815260006020604081840152835180604085015260005b818110156102c6578581018301518582016060015282016102aa565b818111156102d8576000606083870101525b50601f01601f191692909201606001949350505050565b60006020828403121561030157600080fd5b5035919050565b60006020828403121561031a57600080fd5b8151801515811461032a57600080fd5b9392505050565b6000821982111561035257634e487b7160e01b600052601160045260246000fd5b50019056fea164736f6c634300080a000a",
  "linkReferences": {},
  "deployedLinkReferences": {}
}