{
  "_format": "hh-sol-artifact-1",
  "contractName": "CompoundCTokenSilo",
  "sourceName": "contracts/CompoundCTokenSilo.sol",
  "abi": [
    {
      "inputs": [
        {
          "internalType": "address",
          "name": "_cToken",
          "type": "address"
        }
      ],
      "stateMutability": "nonpayable",
      "type": "constructor"
    },
    {
      "inputs": [
        {
          "internalType": "address",
          "name": "account",
          "type": "address"
        }
      ],
      "name": "balanceOf",
      "outputs": [
        {
          "internalType": "uint256",
          "name": "balance",
          "type": "uint256"
        }
      ],
      "stateMutability": "view",
      "type": "function"
    },
    {
      "inputs": [],
      "name": "cToken",
      "outputs": [
        {
          "internalType": "address",
          "name": "",
          "type": "address"
        }
      ],
      "stateMutability": "view",
      "type": "function"
    },
    {
      "inputs": [
        {
          "internalType": "uint256",
          "name": "amount",
          "type": "uint256"
        }
      ],
      "name": "deposit",
      "outputs": [],
      "stateMutability": "nonpayable",
      "type": "function"
    },
    {
      "inputs": [],
      "name": "name",
      "outputs": [
        {
          "internalType": "string",
          "name": "",
          "type": "string"
        }
      ],
      "stateMutability": "view",
      "type": "function"
    },
    {
      "inputs": [],
      "name": "poke",
      "outputs": [],
      "stateMutability": "nonpayable",
      "type": "function"
    },
    {
      "inputs": [
        {
          "internalType": "address",
          "name": "token",
          "type": "address"
        }
      ],
      "name": "shouldAllowRemovalOf",
      "outputs": [
        {
          "internalType": "bool",
          "name": "shouldAllow",
          "type": "bool"
        }
      ],
      "stateMutability": "view",
      "type": "function"
    },
    {
      "inputs": [],
      "name": "uToken",
      "outputs": [
        {
          "internalType": "address",
          "name": "",
          "type": "address"
        }
      ],
      "stateMutability": "view",
      "type": "function"
    },
    {
      "inputs": [
        {
          "internalType": "uint256",
          "name": "amount",
          "type": "uint256"
        }
      ],
      "name": "withdraw",
      "outputs": [],
      "stateMutability": "nonpayable",
      "type": "function"
    }
  ],
  "bytecode": "0x60c06040523480156200001157600080fd5b5060405162000d7938038062000d798339810160408190526200003491620001ff565b6001600160a01b038116608081905260408051636f307dc360e01b81529051636f307dc3916004808201926020929091908290030181865afa1580156200007f573d6000803e3d6000fd5b505050506040513d601f19601f82011682018060405250810190620000a59190620001ff565b6001600160a01b031660a0819052604080516395d89b4160e01b815290516395d89b41916004808201926000929091908290030181865afa158015620000ef573d6000803e3d6000fd5b505050506040513d6000823e601f3d908101601f191682016040526200011991908101906200027a565b6040516020016200012b919062000332565b604051602081830303815290604052600090805190602001906200015192919062000159565b5050620003b1565b828054620001679062000374565b90600052602060002090601f0160209004810192826200018b5760008555620001d6565b82601f10620001a657805160ff1916838001178555620001d6565b82800160010185558215620001d6579182015b82811115620001d6578251825591602001919060010190620001b9565b50620001e4929150620001e8565b5090565b5b80821115620001e45760008155600101620001e9565b6000602082840312156200021257600080fd5b81516001600160a01b03811681146200022a57600080fd5b9392505050565b634e487b7160e01b600052604160045260246000fd5b60005b83811015620002645781810151838201526020016200024a565b8381111562000274576000848401525b50505050565b6000602082840312156200028d57600080fd5b81516001600160401b0380821115620002a557600080fd5b818401915084601f830112620002ba57600080fd5b815181811115620002cf57620002cf62000231565b604051601f8201601f19908116603f01168101908382118183101715620002fa57620002fa62000231565b816040528281528760208487010111156200031457600080fd5b6200032783602083016020880162000247565b979650505050505050565b68021b7b6b837bab732160bd1b8152600082516200035881600985016020870162000247565b642053696c6f60d81b6009939091019283015250600e01919050565b600181811c908216806200038957607f821691505b60208210811415620003ab57634e487b7160e01b600052602260045260246000fd5b50919050565b60805160a05161096b6200040e6000396000818161011e015261056d01526000818160bb0152818161015d01528181610243015281816102e10152818161038a015281816104770152818161058e01526105c9015261096b6000f3fe608060405234801561001057600080fd5b50600436106100885760003560e01c8063633156371161005b578063633156371461011957806369e527da1461015857806370a082311461017f578063b6b55f25146101a057600080fd5b806306fdde031461008d5780631363efd8146100ab57806318178358146100fc5780632e1a7d4d14610106575b600080fd5b6100956101b3565b6040516100a2919061082b565b60405180910390f35b6100ec6100b9366004610880565b7f00000000000000000000000000000000000000000000000000000000000000006001600160a01b039081169116141590565b60405190151581526020016100a2565b610104610241565b005b6101046101143660046108a9565b6102c8565b6101407f000000000000000000000000000000000000000000000000000000000000000081565b6040516001600160a01b0390911681526020016100a2565b6101407f000000000000000000000000000000000000000000000000000000000000000081565b61019261018d366004610880565b610455565b6040519081526020016100a2565b6101046101ae3660046108a9565b610560565b600080546101c0906108c2565b80601f01602080910402602001604051908101604052809291908181526020018280546101ec906108c2565b80156102395780601f1061020e57610100808354040283529160200191610239565b820191906000526020600020905b81548152906001019060200180831161021c57829003601f168201915b505050505081565b7f00000000000000000000000000000000000000000000000000000000000000006001600160a01b031663a6afed956040518163ffffffff1660e01b81526004016020604051808303816000875af11580156102a1573d6000803e3d6000fd5b505050506040513d601f19601f820116820180604052508101906102c591906108fd565b50565b806102d05750565b600061036682670de0b6b3a76400007f00000000000000000000000000000000000000000000000000000000000000006001600160a01b031663182df0f56040518163ffffffff1660e01b8152600401602060405180830381865afa15801561033d573d6000803e3d6000fd5b505050506040513d601f19601f8201168201806040525081019061036191906108fd565b61068b565b610371906001610916565b60405163db006a7560e01b8152600481018290529091507f00000000000000000000000000000000000000000000000000000000000000006001600160a01b03169063db006a75906024016020604051808303816000875af11580156103db573d6000803e3d6000fd5b505050506040513d601f19601f820116820180604052508101906103ff91906108fd565b156104515760405162461bcd60e51b815260206004820152601760248201527f436f6d706f756e643a2072656465656d206661696c656400000000000000000060448201526064015b60405180910390fd5b5050565b6040516370a0823160e01b81526001600160a01b0382811660048301526000917f00000000000000000000000000000000000000000000000000000000000000009161055991908316906370a0823190602401602060405180830381865afa1580156104c5573d6000803e3d6000fd5b505050506040513d601f19601f820116820180604052508101906104e991906108fd565b826001600160a01b031663182df0f56040518163ffffffff1660e01b8152600401602060405180830381865afa158015610527573d6000803e3d6000fd5b505050506040513d601f19601f8201168201806040525081019061054b91906108fd565b670de0b6b3a764000061068b565b9392505050565b806105685750565b6105b37f00000000000000000000000000000000000000000000000000000000000000007f000000000000000000000000000000000000000000000000000000000000000083610737565b60405163140e25ad60e31b8152600481018290527f00000000000000000000000000000000000000000000000000000000000000006001600160a01b03169063a0712d68906024016020604051808303816000875af115801561061a573d6000803e3d6000fd5b505050506040513d601f19601f8201168201806040525081019061063e91906108fd565b156102c55760405162461bcd60e51b815260206004820152601560248201527f436f6d706f756e643a206d696e74206661696c656400000000000000000000006044820152606401610448565b60008161069757600080fd5b60008060001985870985870292508281108382030391505080600014156106c357508290049050610559565b8381106106cf57600080fd5b600084868809600260036001881981018916988990049182028318808302840302808302840302808302840302808302840302808302840302918202909203026000889003889004909101858311909403939093029303949094049190911702949350505050565b604051636eb1769f60e11b81523060048201526001600160a01b03838116602483015282919085169063dd62ed3e90604401602060405180830381865afa158015610786573d6000803e3d6000fd5b505050506040513d601f19601f820116820180604052508101906107aa91906108fd565b10156108265760405163095ea7b360e01b81526001600160a01b038381166004830152600019602483015284169063095ea7b3906044016020604051808303816000875af1158015610800573d6000803e3d6000fd5b505050506040513d601f19601f82011682018060405250810190610824919061093c565b505b505050565b600060208083528351808285015260005b818110156108585785810183015185820160400152820161083c565b8181111561086a576000604083870101525b50601f01601f1916929092016040019392505050565b60006020828403121561089257600080fd5b81356001600160a01b038116811461055957600080fd5b6000602082840312156108bb57600080fd5b5035919050565b600181811c908216806108d657607f821691505b602082108114156108f757634e487b7160e01b600052602260045260246000fd5b50919050565b60006020828403121561090f57600080fd5b5051919050565b6000821982111561093757634e487b7160e01b600052601160045260246000fd5b500190565b60006020828403121561094e57600080fd5b8151801515811461055957600080fdfea164736f6c634300080a000a",
  "linkReferences": {},
  "deployedLinkReferences": {}
}