{
  "_format": "hh-sol-artifact-1",
  "contractName": "UniswapHelper",
  "sourceName": "contracts/UniswapHelper.sol",
  "abi": [
    {
      "inputs": [
        {
          "internalType": "contract IUniswapV3Pool",
          "name": "_pool",
          "type": "address"
        }
      ],
      "stateMutability": "nonpayable",
      "type": "constructor"
    },
    {
      "inputs": [],
      "name": "TOKEN0",
      "outputs": [
        {
          "internalType": "contract IERC20",
          "name": "",
          "type": "address"
        }
      ],
      "stateMutability": "view",
      "type": "function"
    },
    {
      "inputs": [],
      "name": "TOKEN1",
      "outputs": [
        {
          "internalType": "contract IERC20",
          "name": "",
          "type": "address"
        }
      ],
      "stateMutability": "view",
      "type": "function"
    },
    {
      "inputs": [],
      "name": "UNI_POOL",
      "outputs": [
        {
          "internalType": "contract IUniswapV3Pool",
          "name": "",
          "type": "address"
        }
      ],
      "stateMutability": "view",
      "type": "function"
    },
    {
      "inputs": [
        {
          "internalType": "uint256",
          "name": "_amount0",
          "type": "uint256"
        },
        {
          "internalType": "uint256",
          "name": "_amount1",
          "type": "uint256"
        },
        {
          "internalType": "bytes",
          "name": "",
          "type": "bytes"
        }
      ],
      "name": "uniswapV3MintCallback",
      "outputs": [],
      "stateMutability": "nonpayable",
      "type": "function"
    }
  ],
  "bytecode": "0x61010060405234801561001157600080fd5b50604051610807380380610807833981016040819052610030916101b8565b6001600160a01b038116608081905260408051630dfe168160e01b81529051630dfe1681916004808201926020929091908290030181865afa15801561007a573d6000803e3d6000fd5b505050506040513d601f19601f8201168201806040525081019061009e91906101b8565b6001600160a01b031660a0816001600160a01b031681525050806001600160a01b031663d21220a76040518163ffffffff1660e01b8152600401602060405180830381865afa1580156100f5573d6000803e3d6000fd5b505050506040513d601f19601f8201168201806040525081019061011991906101b8565b6001600160a01b031660c0816001600160a01b031681525050806001600160a01b031663d0c93a7c6040518163ffffffff1660e01b8152600401602060405180830381865afa158015610170573d6000803e3d6000fd5b505050506040513d601f19601f8201168201806040525081019061019491906101dc565b60020b60e052506101ff565b6001600160a01b03811681146101b557600080fd5b50565b6000602082840312156101ca57600080fd5b81516101d5816101a0565b9392505050565b6000602082840312156101ee57600080fd5b81518060020b81146101d557600080fd5b60805160a05160c05160e0516105c06102476000396000505060008181609901526101790152600081816056015261013f01526000818160c0015261010201526105c06000f3fe608060405234801561001057600080fd5b506004361061004c5760003560e01c8063443ec74d146100515780635ee04d78146100945780639b147558146100bb578063d3487997146100e2575b600080fd5b6100787f000000000000000000000000000000000000000000000000000000000000000081565b6040516001600160a01b03909116815260200160405180910390f35b6100787f000000000000000000000000000000000000000000000000000000000000000081565b6100787f000000000000000000000000000000000000000000000000000000000000000081565b6100f56100f0366004610496565b6100f7565b005b336001600160a01b037f0000000000000000000000000000000000000000000000000000000000000000161461012c57600080fd5b8315610166576101666001600160a01b037f00000000000000000000000000000000000000000000000000000000000000001633866101a6565b82156101a0576101a06001600160a01b037f00000000000000000000000000000000000000000000000000000000000000001633856101a6565b50505050565b604080516001600160a01b038416602482015260448082018490528251808303909101815260649091019091526020810180517bffffffffffffffffffffffffffffffffffffffffffffffffffffffff1663a9059cbb60e01b17905261020d908490610212565b505050565b6000610267826040518060400160405280602081526020017f5361666545524332303a206c6f772d6c6576656c2063616c6c206661696c6564815250856001600160a01b03166102fc9092919063ffffffff16565b80519091501561020d57808060200190518101906102859190610516565b61020d5760405162461bcd60e51b815260206004820152602a60248201527f5361666545524332303a204552433230206f7065726174696f6e20646964206e60448201527f6f7420737563636565640000000000000000000000000000000000000000000060648201526084015b60405180910390fd5b606061030b8484600085610315565b90505b9392505050565b60608247101561038d5760405162461bcd60e51b815260206004820152602660248201527f416464726573733a20696e73756666696369656e742062616c616e636520666f60448201527f722063616c6c000000000000000000000000000000000000000000000000000060648201526084016102f3565b6001600160a01b0385163b6103e45760405162461bcd60e51b815260206004820152601d60248201527f416464726573733a2063616c6c20746f206e6f6e2d636f6e747261637400000060448201526064016102f3565b600080866001600160a01b031685876040516104009190610564565b60006040518083038185875af1925050503d806000811461043d576040519150601f19603f3d011682016040523d82523d6000602084013e610442565b606091505b509150915061045282828661045d565b979650505050505050565b6060831561046c57508161030e565b82511561047c5782518084602001fd5b8160405162461bcd60e51b81526004016102f39190610580565b600080600080606085870312156104ac57600080fd5b8435935060208501359250604085013567ffffffffffffffff808211156104d257600080fd5b818701915087601f8301126104e657600080fd5b8135818111156104f557600080fd5b88602082850101111561050757600080fd5b95989497505060200194505050565b60006020828403121561052857600080fd5b8151801515811461030e57600080fd5b60005b8381101561055357818101518382015260200161053b565b838111156101a05750506000910152565b60008251610576818460208701610538565b9190910192915050565b602081526000825180602084015261059f816040850160208701610538565b601f01601f1916919091016040019291505056fea164736f6c634300080a000a",
  "linkReferences": {},
  "deployedLinkReferences": {}
}