{
  "_format": "hh-sol-artifact-1",
  "contractName": "SwapSweepERC20",
  "sourceName": "contracts/SwapSweepERC20.sol",
  "abi": [
    {
      "inputs": [
        {
          "internalType": "string",
          "name": "_name",
          "type": "string"
        }
      ],
      "stateMutability": "nonpayable",
      "type": "constructor"
    },
    {
      "anonymous": false,
      "inputs": [
        {
          "indexed": true,
          "internalType": "address",
          "name": "owner",
          "type": "address"
        },
        {
          "indexed": true,
          "internalType": "address",
          "name": "spender",
          "type": "address"
        },
        {
          "indexed": false,
          "internalType": "uint256",
          "name": "amount",
          "type": "uint256"
        }
      ],
      "name": "Approval",
      "type": "event"
    },
    {
      "anonymous": false,
      "inputs": [
        {
          "indexed": true,
          "internalType": "address",
          "name": "from",
          "type": "address"
        },
        {
          "indexed": true,
          "internalType": "address",
          "name": "to",
          "type": "address"
        },
        {
          "indexed": false,
          "internalType": "uint256",
          "name": "amount",
          "type": "uint256"
        }
      ],
      "name": "Transfer",
      "type": "event"
    },
    {
      "inputs": [],
      "name": "DOMAIN_SEPARATOR",
      "outputs": [
        {
          "internalType": "bytes32",
          "name": "",
          "type": "bytes32"
        }
      ],
      "stateMutability": "view",
      "type": "function"
    },
    {
      "inputs": [
        {
          "internalType": "address",
          "name": "",
          "type": "address"
        },
        {
          "internalType": "address",
          "name": "",
          "type": "address"
        }
      ],
      "name": "allowance",
      "outputs": [
        {
          "internalType": "uint256",
          "name": "",
          "type": "uint256"
        }
      ],
      "stateMutability": "view",
      "type": "function"
    },
    {
      "inputs": [
        {
          "internalType": "address",
          "name": "spender",
          "type": "address"
        },
        {
          "internalType": "uint256",
          "name": "amount",
          "type": "uint256"
        }
      ],
      "name": "approve",
      "outputs": [
        {
          "internalType": "bool",
          "name": "",
          "type": "bool"
        }
      ],
      "stateMutability": "nonpayable",
      "type": "function"
    },
    {
      "inputs": [
        {
          "internalType": "address",
          "name": "",
          "type": "address"
        }
      ],
      "name": "balanceOf",
      "outputs": [
        {
          "internalType": "uint256",
          "name": "",
          "type": "uint256"
        }
      ],
      "stateMutability": "view",
      "type": "function"
    },
    {
      "inputs": [],
      "name": "decimals",
      "outputs": [
        {
          "internalType": "uint8",
          "name": "",
          "type": "uint8"
        }
      ],
      "stateMutability": "view",
      "type": "function"
    },
    {
      "inputs": [],
      "name": "name",
      "outputs": [
        {
          "internalType": "string",
          "name": "",
          "type": "string"
        }
      ],
      "stateMutability": "view",
      "type": "function"
    },
    {
      "inputs": [
        {
          "internalType": "address",
          "name": "",
          "type": "address"
        }
      ],
      "name": "nonces",
      "outputs": [
        {
          "internalType": "uint256",
          "name": "",
          "type": "uint256"
        }
      ],
      "stateMutability": "view",
      "type": "function"
    },
    {
      "inputs": [
        {
          "internalType": "address",
          "name": "owner",
          "type": "address"
        },
        {
          "internalType": "address",
          "name": "spender",
          "type": "address"
        },
        {
          "internalType": "uint256",
          "name": "value",
          "type": "uint256"
        },
        {
          "internalType": "uint256",
          "name": "deadline",
          "type": "uint256"
        },
        {
          "internalType": "uint8",
          "name": "v",
          "type": "uint8"
        },
        {
          "internalType": "bytes32",
          "name": "r",
          "type": "bytes32"
        },
        {
          "internalType": "bytes32",
          "name": "s",
          "type": "bytes32"
        }
      ],
      "name": "permit",
      "outputs": [],
      "stateMutability": "nonpayable",
      "type": "function"
    },
    {
      "inputs": [
        {
          "internalType": "uint256",
          "name": "",
          "type": "uint256"
        }
      ],
      "name": "shares",
      "outputs": [
        {
          "internalType": "uint256",
          "name": "",
          "type": "uint256"
        }
      ],
      "stateMutability": "view",
      "type": "function"
    },
    {
      "inputs": [],
      "name": "symbol",
      "outputs": [
        {
          "internalType": "string",
          "name": "",
          "type": "string"
        }
      ],
      "stateMutability": "view",
      "type": "function"
    },
    {
      "inputs": [],
      "name": "totalSupply",
      "outputs": [
        {
          "internalType": "uint256",
          "name": "",
          "type": "uint256"
        }
      ],
      "stateMutability": "view",
      "type": "function"
    },
    {
      "inputs": [
        {
          "internalType": "address",
          "name": "to",
          "type": "address"
        },
        {
          "internalType": "uint256",
          "name": "amount",
          "type": "uint256"
        }
      ],
      "name": "transfer",
      "outputs": [
        {
          "internalType": "bool",
          "name": "",
          "type": "bool"
        }
      ],
      "stateMutability": "nonpayable",
      "type": "function"
    },
    {
      "inputs": [
        {
          "internalType": "address",
          "name": "from",
          "type": "address"
        },
        {
          "internalType": "address",
          "name": "to",
          "type": "address"
        },
        {
          "internalType": "uint256",
          "name": "amount",
          "type": "uint256"
        }
      ],
      "name": "transferFrom",
      "outputs": [
        {
          "internalType": "bool",
          "name": "",
          "type": "bool"
        }
      ],
      "stateMutability": "nonpayable",
      "type": "function"
    }
  ],
  "bytecode": "0x60e06040523480156200001157600080fd5b5060405162000ebb38038062000ebb833981016040819052620000349162000204565b806040518060400160405280600a8152602001690535741505f53574545560b41b815250601282600090805190602001906200007292919062000148565b5081516200008890600190602085019062000148565b5060ff81166080524660a0526200009e620000ac565b60c05250620003c192505050565b60007f8b73c3c69bb8fe3d512ecc4cf759cc79239f7b179b0ffacaa9a75d522b39400f6000604051620000e091906200031d565b6040805191829003822060208301939093528101919091527fc89efdaa54c0f20c7adf612882df0950f5a951637e0307cdcb4c672f298b8bc660608201524660808201523060a082015260c00160405160208183030381529060405280519060200120905090565b8280546200015690620002e0565b90600052602060002090601f0160209004810192826200017a5760008555620001c5565b82601f106200019557805160ff1916838001178555620001c5565b82800160010185558215620001c5579182015b82811115620001c5578251825591602001919060010190620001a8565b50620001d3929150620001d7565b5090565b5b80821115620001d35760008155600101620001d8565b634e487b7160e01b600052604160045260246000fd5b600060208083850312156200021857600080fd5b82516001600160401b03808211156200023057600080fd5b818501915085601f8301126200024557600080fd5b8151818111156200025a576200025a620001ee565b604051601f8201601f19908116603f01168101908382118183101715620002855762000285620001ee565b8160405282815288868487010111156200029e57600080fd5b600093505b82841015620002c25784840186015181850187015292850192620002a3565b82841115620002d45760008684830101525b98975050505050505050565b600181811c90821680620002f557607f821691505b602082108114156200031757634e487b7160e01b600052602260045260246000fd5b50919050565b600080835481600182811c9150808316806200033a57607f831692505b60208084108214156200035b57634e487b7160e01b86526022600452602486fd5b8180156200037257600181146200038457620003b3565b60ff19861689528489019650620003b3565b60008a81526020902060005b86811015620003ab5781548b82015290850190830162000390565b505084890196505b509498975050505050505050565b60805160a05160c051610aca620003f160003960006104700152600061043b015260006101540152610aca6000f3fe608060405234801561001057600080fd5b50600436106100df5760003560e01c806357a858fc1161008c57806395d89b411161006657806395d89b41146101f0578063a9059cbb146101f8578063d505accf1461020b578063dd62ed3e1461022057600080fd5b806357a858fc1461019057806370a08231146101b05780637ecebe00146101d057600080fd5b806323b872dd116100bd57806323b872dd1461013c578063313ce5671461014f5780633644e5151461018857600080fd5b806306fdde03146100e4578063095ea7b31461010257806318160ddd14610125575b600080fd5b6100ec61024b565b6040516100f99190610809565b60405180910390f35b61011561011036600461087a565b6102d9565b60405190151581526020016100f9565b61012e60025481565b6040519081526020016100f9565b61011561014a3660046108a4565b610345565b6101767f000000000000000000000000000000000000000000000000000000000000000081565b60405160ff90911681526020016100f9565b61012e610437565b61012e61019e3660046108e0565b60066020526000908152604090205481565b61012e6101be3660046108f9565b60036020526000908152604090205481565b61012e6101de3660046108f9565b60056020526000908152604090205481565b6100ec610492565b61011561020636600461087a565b61049f565b61021e61021936600461091b565b610517565b005b61012e61022e36600461098e565b600460209081526000928352604080842090915290825290205481565b60008054610258906109c1565b80601f0160208091040260200160405190810160405280929190818152602001828054610284906109c1565b80156102d15780601f106102a6576101008083540402835291602001916102d1565b820191906000526020600020905b8154815290600101906020018083116102b457829003601f168201915b505050505081565b3360008181526004602090815260408083206001600160a01b038716808552925280832085905551919290917f8c5be1e5ebec7d5bd14f71427d1e84f3dd0314c0f7b2291e5b200ac8c7c3b925906103349086815260200190565b60405180910390a350600192915050565b6001600160a01b038316600090815260046020908152604080832033845290915281205460001981146103a15761037c83826109fc565b6001600160a01b03861660009081526004602090815260408083203384529091529020555b6001600160a01b038516600090815260036020526040812080548592906103c99084906109fc565b90915550506001600160a01b03808516600081815260036020526040908190208054870190555190918716907fddf252ad1be2c89b69c2b068fc378daa952ba7f163c4a11628f55a4df523b3ef906104249087815260200190565b60405180910390a3506001949350505050565b60007f0000000000000000000000000000000000000000000000000000000000000000461461046d5761046861076f565b905090565b507f000000000000000000000000000000000000000000000000000000000000000090565b60018054610258906109c1565b336000908152600360205260408120805483919083906104c09084906109fc565b90915550506001600160a01b038316600081815260036020526040908190208054850190555133907fddf252ad1be2c89b69c2b068fc378daa952ba7f163c4a11628f55a4df523b3ef906103349086815260200190565b4284101561056c5760405162461bcd60e51b815260206004820152601760248201527f5045524d49545f444541444c494e455f4558504952454400000000000000000060448201526064015b60405180910390fd5b60006001610578610437565b6001600160a01b038a811660008181526005602090815260409182902080546001810190915582517f6e71edae12b1b97f4d1f60370fef10105fa2faae0126114a169c64845d6126c98184015280840194909452938d166060840152608083018c905260a083019390935260c08083018b90528151808403909101815260e08301909152805192019190912061190160f01b6101008301526101028201929092526101228101919091526101420160408051601f198184030181528282528051602091820120600084529083018083525260ff871690820152606081018590526080810184905260a0016020604051602081039080840390855afa158015610684573d6000803e3d6000fd5b5050604051601f1901519150506001600160a01b038116158015906106ba5750876001600160a01b0316816001600160a01b0316145b6107065760405162461bcd60e51b815260206004820152600e60248201527f494e56414c49445f5349474e45520000000000000000000000000000000000006044820152606401610563565b6001600160a01b0390811660009081526004602090815260408083208a8516808552908352928190208990555188815291928a16917f8c5be1e5ebec7d5bd14f71427d1e84f3dd0314c0f7b2291e5b200ac8c7c3b925910160405180910390a350505050505050565b60007f8b73c3c69bb8fe3d512ecc4cf759cc79239f7b179b0ffacaa9a75d522b39400f60006040516107a19190610a21565b6040805191829003822060208301939093528101919091527fc89efdaa54c0f20c7adf612882df0950f5a951637e0307cdcb4c672f298b8bc660608201524660808201523060a082015260c00160405160208183030381529060405280519060200120905090565b600060208083528351808285015260005b818110156108365785810183015185820160400152820161081a565b81811115610848576000604083870101525b50601f01601f1916929092016040019392505050565b80356001600160a01b038116811461087557600080fd5b919050565b6000806040838503121561088d57600080fd5b6108968361085e565b946020939093013593505050565b6000806000606084860312156108b957600080fd5b6108c28461085e565b92506108d06020850161085e565b9150604084013590509250925092565b6000602082840312156108f257600080fd5b5035919050565b60006020828403121561090b57600080fd5b6109148261085e565b9392505050565b600080600080600080600060e0888a03121561093657600080fd5b61093f8861085e565b965061094d6020890161085e565b95506040880135945060608801359350608088013560ff8116811461097157600080fd5b9699959850939692959460a0840135945060c09093013592915050565b600080604083850312156109a157600080fd5b6109aa8361085e565b91506109b86020840161085e565b90509250929050565b600181811c908216806109d557607f821691505b602082108114156109f657634e487b7160e01b600052602260045260246000fd5b50919050565b600082821015610a1c57634e487b7160e01b600052601160045260246000fd5b500390565b600080835481600182811c915080831680610a3d57607f831692505b6020808410821415610a5d57634e487b7160e01b86526022600452602486fd5b818015610a715760018114610a8257610aaf565b60ff19861689528489019650610aaf565b60008a81526020902060005b86811015610aa75781548b820152908501908301610a8e565b505084890196505b50949897505050505050505056fea164736f6c634300080a000a",
  "linkReferences": {},
  "deployedLinkReferences": {}
}